{
  "address": "0x0b6e3595bbcef688fa2cc288732ae8ac09947398",
  "abi": [
    {
      "inputs": [
        {
          "internalType": "address",
          "name": "owner_",
          "type": "address"
        },
        {
          "internalType": "address",
          "name": "infoDesk_",
          "type": "address"
        },
        {
          "internalType": "address",
          "name": "trexFactory_",
          "type": "address"
        }
      ],
      "stateMutability": "nonpayable",
      "type": "constructor"
    },
    {
      "anonymous": false,
      "inputs": [
        {
          "indexed": true,
          "internalType": "address",
          "name": "previousOwner",
          "type": "address"
        },
        {
          "indexed": true,
          "internalType": "address",
          "name": "newOwner",
          "type": "address"
        }
      ],
      "name": "OwnershipTransferred",
      "type": "event"
    },
    {
      "anonymous": false,
      "inputs": [
        {
          "indexed": true,
          "internalType": "address",
          "name": "vault",
          "type": "address"
        },
        {
          "indexed": true,
          "internalType": "address",
          "name": "token",
          "type": "address"
        },
        {
          "indexed": true,
          "internalType": "address",
          "name": "distributor",
          "type": "address"
        }
      ],
      "name": "VaultCreated",
      "type": "event"
    },
    {
      "anonymous": false,
      "inputs": [
        {
          "indexed": true,
          "internalType": "address",
          "name": "vault",
          "type": "address"
        },
        {
          "indexed": true,
          "internalType": "address",
          "name": "token",
          "type": "address"
        }
      ],
      "name": "VaultTokenPaused",
      "type": "event"
    },
    {
      "anonymous": false,
      "inputs": [
        {
          "indexed": true,
          "internalType": "address",
          "name": "vault",
          "type": "address"
        },
        {
          "indexed": true,
          "internalType": "address",
          "name": "token",
          "type": "address"
        }
      ],
      "name": "VaultTokenUnpaused",
      "type": "event"
    },
    {
      "inputs": [
        {
          "internalType": "address",
          "name": "tokenAddr",
          "type": "address"
        },
        {
          "internalType": "address",
          "name": "vaultTaker",
          "type": "address"
        },
        {
          "internalType": "address",
          "name": "asset",
          "type": "address"
        },
        {
          "internalType": "address[]",
          "name": "complianceModules",
          "type": "address[]"
        }
      ],
      "name": "attachVaultPeers",
      "outputs": [
        {
          "internalType": "address",
          "name": "vaultAddr",
          "type": "address"
        },
        {
          "internalType": "address",
          "name": "distributorAddr",
          "type": "address"
        }
      ],
      "stateMutability": "nonpayable",
      "type": "function"
    },
    {
      "inputs": [
        {
          "internalType": "address",
          "name": "vaultTaker",
          "type": "address"
        },
        {
          "internalType": "string",
          "name": "name",
          "type": "string"
        },
        {
          "internalType": "string",
          "name": "symbol",
          "type": "string"
        },
        {
          "internalType": "address",
          "name": "asset",
          "type": "address"
        },
        {
          "internalType": "address",
          "name": "tokenIdentity",
          "type": "address"
        },
        {
          "internalType": "address[]",
          "name": "claimIssuers",
          "type": "address[]"
        },
        {
          "internalType": "uint256[]",
          "name": "claimTopics",
          "type": "uint256[]"
        },
        {
          "internalType": "address[]",
          "name": "complianceModules",
          "type": "address[]"
        }
      ],
      "name": "createVault",
      "outputs": [
        {
          "internalType": "address",
          "name": "vaultAddr",
          "type": "address"
        },
        {
          "internalType": "address",
          "name": "tokenAddr",
          "type": "address"
        },
        {
          "internalType": "address",
          "name": "distributorAddr",
          "type": "address"
        }
      ],
      "stateMutability": "nonpayable",
      "type": "function"
    },
    {
      "inputs": [
        {
          "internalType": "string",
          "name": "name",
          "type": "string"
        },
        {
          "internalType": "string",
          "name": "symbol",
          "type": "string"
        },
        {
          "internalType": "address[]",
          "name": "claimIssuers",
          "type": "address[]"
        },
        {
          "internalType": "uint256[]",
          "name": "claimTopics",
          "type": "uint256[]"
        },
        {
          "internalType": "address[]",
          "name": "complianceModules",
          "type": "address[]"
        }
      ],
      "name": "deployTrexVault",
      "outputs": [
        {
          "internalType": "address",
          "name": "tokenAddr",
          "type": "address"
        }
      ],
      "stateMutability": "nonpayable",
      "type": "function"
    },
    {
      "inputs": [],
      "name": "infoDesk",
      "outputs": [
        {
          "internalType": "address",
          "name": "",
          "type": "address"
        }
      ],
      "stateMutability": "view",
      "type": "function"
    },
    {
      "inputs": [
        {
          "internalType": "address",
          "name": "vault",
          "type": "address"
        }
      ],
      "name": "isArbVault",
      "outputs": [
        {
          "internalType": "bool",
          "name": "",
          "type": "bool"
        }
      ],
      "stateMutability": "view",
      "type": "function"
    },
    {
      "inputs": [],
      "name": "owner",
      "outputs": [
        {
          "internalType": "address",
          "name": "",
          "type": "address"
        }
      ],
      "stateMutability": "view",
      "type": "function"
    },
    {
      "inputs": [
        {
          "internalType": "address",
          "name": "vault",
          "type": "address"
        }
      ],
      "name": "pauseVaultToken",
      "outputs": [],
      "stateMutability": "nonpayable",
      "type": "function"
    },
    {
      "inputs": [],
      "name": "renounceOwnership",
      "outputs": [],
      "stateMutability": "nonpayable",
      "type": "function"
    },
    {
      "inputs": [
        {
          "internalType": "address",
          "name": "infoDesk_",
          "type": "address"
        }
      ],
      "name": "setInfoDesk",
      "outputs": [],
      "stateMutability": "nonpayable",
      "type": "function"
    },
    {
      "inputs": [
        {
          "internalType": "address",
          "name": "trexFactory_",
          "type": "address"
        }
      ],
      "name": "setTrexFactory",
      "outputs": [],
      "stateMutability": "nonpayable",
      "type": "function"
    },
    {
      "inputs": [
        {
          "internalType": "address",
          "name": "newOwner",
          "type": "address"
        }
      ],
      "name": "transferOwnership",
      "outputs": [],
      "stateMutability": "nonpayable",
      "type": "function"
    },
    {
      "inputs": [],
      "name": "trexFactory",
      "outputs": [
        {
          "internalType": "address",
          "name": "",
          "type": "address"
        }
      ],
      "stateMutability": "view",
      "type": "function"
    },
    {
      "inputs": [
        {
          "internalType": "address",
          "name": "vault",
          "type": "address"
        }
      ],
      "name": "unpauseVaultToken",
      "outputs": [],
      "stateMutability": "nonpayable",
      "type": "function"
    }
  ],
  "contractName": "ArbVaultFactory",
  "sourceName": "contracts/src/vault/ArbVaultFactory.sol",
  "bytecode": "0x608034620000bb57601f6200391138819003918201601f19168301916001600160401b03831184841017620000c057808492606094604052833981010312620000bb576200004d81620000d6565b6200007f6200006d60406200006560208601620000d6565b9401620000d6565b916200007933620000eb565b620000eb565b600180546001600160a01b039384166001600160a01b031991821617909155600280549290931691161790556040516137de9081620001338239f35b600080fd5b634e487b7160e01b600052604160045260246000fd5b51906001600160a01b0382168203620000bb57565b600080546001600160a01b039283166001600160a01b03198216811783559216907f8be0079c531659141344cd1fd0a4f28419497f9722a3daafe3b4186f6b6457e09080a356fe6040608081526004803610156200001557600080fd5b600091823560e01c91826330179c15146200076d5782633aef3576146200063f5782635104224914620005fd57826369d37ed0146200052c578263715018a614620004ce5782638da5cb5b14620004a45782639a44f1b21462000479578263a4f2d1981462000317578263b01ee00914620002d1578263b93cfc1b146200020b578263c06b656814620001dc578263f2fde38b146200010857505063f545faea14620000c057600080fd5b34620001055760203660031901126200010557620000dd62000886565b620000e762000a55565b60018060a01b03166001600160601b0360a01b600254161760025580f35b80fd5b90915034620001d8576020366003190112620001d8576200012862000886565b906200013362000a55565b6001600160a01b0391821692831562000186575050600054826001600160601b0360a01b821617600055167f8be0079c531659141344cd1fd0a4f28419497f9722a3daafe3b4186f6b6457e0600080a380f35b906020608492519162461bcd60e51b8352820152602660248201527f4f776e61626c653a206e6577206f776e657220697320746865207a65726f206160448201526564647265737360d01b6064820152fd5b8280fd5b838234620002075781600319360112620002075760015490516001600160a01b039091168152602090f35b5080fd5b90915034620001d8576080366003190112620001d8576200022b62000886565b906001600160a01b0390602435908282168203620002cc57604435908382168203620002cc576064356001600160401b038111620002c85793620002af819482946200029d8b957f897c133dfbfe1f6239e98b4ffd7e4f6c86a62350a131a7a37790419f58af02f99936910162000978565b91620002a862000a55565b8962001348565b911693849116948593885197169280a482526020820152f35b8780fd5b600080fd5b8334620001055760203660031901126200010557620002ef62000886565b620002f962000a55565b60018060a01b03166001600160601b0360a01b600154161760015580f35b915034620001d857610100366003190112620001d8576200033762000886565b6001600160401b03919060243583811162000475576200035b903690860162000905565b92604435818111620004715762000376903690870162000905565b6001600160a01b0395606435908782168203620002cc5760843588811603620002cc5760a4358481116200046d57620003b3903690830162000978565b9660c4358581116200046957620003ce9036908401620009ef565b60e43595861162000469576200046598620003f56200040894620004109836910162000978565b9586936200040262000a55565b62000bef565b938462001348565b9251958587968516917f897c133dfbfe1f6239e98b4ffd7e4f6c86a62350a131a7a37790419f58af02f98286169285169180a46001600160a01b03908116855290811660208501521660408301526060820190565b0390f35b8a80fd5b8980fd5b8680fd5b8580fd5b838234620002075781600319360112620002075760025490516001600160a01b039091168152602090f35b8382346200020757816003193601126200020757905490516001600160a01b039091168152602090f35b83346200010557806003193601126200010557620004eb62000a55565b600080546001600160a01b0319811682556001600160a01b03167f8be0079c531659141344cd1fd0a4f28419497f9722a3daafe3b4186f6b6457e08280a380f35b908334620001055760a036600319011262000105576001600160401b038335818111620001d85762000562903690860162000905565b93602435828111620005f9576200057d903690830162000905565b90604435838111620005f55762000598903690830162000978565b926064358181116200047557620005b39036908401620009ef565b9460843591821162000105575091620005d96020979492620005e4969436910162000978565b936200040262000a55565b90516001600160a01b039091168152f35b8480fd5b8380fd5b83823462000207576020366003190112620002075760209160ff9082906001600160a01b036200062c62000886565b1681526003855220541690519015158152f35b90915034620001d8576020366003190112620001d857826200066062000886565b916200066b62000a55565b6001600160a01b03928316808352600360205284832054909390620006939060ff1662001732565b8451637e062a3560e11b81526020818481885afa908115620007635784916200072e575b501693843b15620001d8578281518093631fa5d41d60e11b82528183895af19081156200072557506200070d575b50807f51ddf5718ae6ba32375357b4c9a833c34057a9e7584807bad94ac50a32225a7691a380f35b62000718906200089d565b620001d8578238620006e5565b513d84823e3d90fd5b62000754915060203d81116200075b575b6200074b8183620008e3565b81019062000bce565b38620006b7565b503d6200073f565b86513d86823e3d90fd5b90915034620001d8576020366003190112620001d8576200078d62000886565b906200079862000a55565b6001600160a01b03918216808552600360205283852054909290620007c09060ff1662001732565b8351637e062a3560e11b81526020818481875afa9081156200087c57869162000859575b501692833b15620005f5578481518093638456cb5960e01b82528183885af19081156200085057506200083a575b507f8ab118a4332f985a5a2050d0e85c2e0b15316903e4ca75e7ade19d6dbc8248538380a380f35b62000848909391936200089d565b913862000812565b513d86823e3d90fd5b62000875915060203d81116200075b576200074b8183620008e3565b38620007e4565b85513d88823e3d90fd5b600435906001600160a01b0382168203620002cc57565b6001600160401b038111620008b157604052565b634e487b7160e01b600052604160045260246000fd5b606081019081106001600160401b03821117620008b157604052565b90601f801991011681019081106001600160401b03821117620008b157604052565b81601f82011215620002cc578035906001600160401b038211620008b157604051926200093d601f8401601f191660200185620008e3565b82845260208383010111620002cc57816000926020809301838601378301015290565b6001600160401b038111620008b15760051b60200190565b81601f82011215620002cc57803591620009928362000960565b92620009a26040519485620008e3565b808452602092838086019260051b820101928311620002cc578301905b828210620009ce575050505090565b81356001600160a01b0381168103620002cc578152908301908301620009bf565b81601f82011215620002cc5780359162000a098362000960565b9262000a196040519485620008e3565b808452602092838086019260051b820101928311620002cc578301905b82821062000a45575050505090565b8135815290830190830162000a36565b6000546001600160a01b0316330362000a6a57565b606460405162461bcd60e51b815260206004820152602060248201527f4f776e61626c653a2063616c6c6572206973206e6f7420746865206f776e65726044820152fd5b600019811462000abe5760010190565b634e487b7160e01b600052601160045260246000fd5b60005b83811062000ae85750506000910152565b818101518382015260200162000ad7565b80511562000b075760200190565b634e487b7160e01b600052603260045260246000fd5b805182101562000b075760209160051b010190565b9060209162000b4d8151809281855285808601910162000ad4565b601f01601f1916010190565b90815180825260208080930193019160005b82811062000b7a575050505090565b83516001600160a01b03168552938101939281019260010162000b6b565b90815180825260208080930193019160005b82811062000bb9575050505090565b83518552938101939281019260010162000baa565b90816020910312620002cc57516001600160a01b0381168103620002cc5790565b9194909293948051928551600094036200130b57865115620012cd5762000c1860055462000aae565b918260055560405192697277612d7661756c742d60b01b6020850152602a840152602a835262000c4883620008c7565b604051835162000c5d81836020880162000ad4565b60049082019081528190036020019020546001600160a01b03166200129c5796929094939187519562000c908762000960565b9662000ca06040519889620008e3565b80885262000cb1601f199162000960565b01845b8181106200128857505083985b80518a101562000d7f57885162000cd88162000960565b9062000ce86040519283620008e3565b80825262000cf9601f199162000960565b0136602083013762000d0c8b8a62000b1d565b5262000d198a8962000b1d565b50845b895181101562000d5f57808962000d528262000d4b8f8f62000d599762000d439162000b1d565b519462000b1d565b5162000b1d565b5262000aae565b62000d1c565b509193959092949862000d729062000aae565b9894929095939162000cc1565b92979591969398509360405162000d9681620008c7565b6002815260403660208301373062000dae8262000af9565b5260018060a01b038a541681516001101562001274576040820152604051908160408101106001600160401b0360408401111762001260576040820160405260018252602036818401373062000e048362000af9565b52604051938460208101106001600160401b036020870111176200124c57602085016040528b855260405197886101408101106001600160401b036101408b0111176200123857610140890160405230895260208901526040880152601260608801528a60808801528a60a088015260c087015260e0860152610100850152610120840152604051938460608101106001600160401b0360608701111762001224576060850160405284526020840152604083015260018060a01b036002541690813b15620004755760405163cf753d3760e01b8152606060048201529286928492909162000ef7606485018862000b32565b9160031985840301602486015260018060a01b03815116835261012062000fbf62000faa62000f9762000f5362000f40602087015161014060208b01526101408a019062000b32565b604087015189820360408b015262000b32565b60ff606087015116606089015260018060a01b03608087015116608089015260018060a01b0360a08701511660a089015260c086015188820360c08a015262000b59565b60e085015187820360e089015262000b59565b61010084015186820361010088015262000b59565b91015192610120818303910152825180825260208201916020808360051b83010195019288915b838310620011ea57505050505060031984830301604485015260406200102d6200101a835160608652606086019062000b98565b6020840151858203602087015262000b59565b910151916040818303910152815180825260208201916020808360051b83010194019287915b838310620011b45750505050508383809203925af18015620011a95762001178575b5060025460405163182e67ed60e31b8152602060048201819052909182906001600160a01b03168180620010ad602482018862000b32565b03915afa9384156200116c579362001146575b506001600160a01b0383169081156200110c576020620010ee91816040519382858094519384920162000ad4565b81016004815203019020906001600160601b0360a01b825416179055565b60405162461bcd60e51b8152602060048201526012602482015271151bdad95b881b9bdd0819195c1b1bde595960721b6044820152606490fd5b6200116491935060203d6020116200075b576200074b8183620008e3565b9138620010c0565b604051903d90823e3d90fd5b6001600160401b0381949294116200119557604052913862001075565b634e487b7160e01b82526041600452602482fd5b6040513d86823e3d90fd5b9295975092955092602080620011d7600193601f19868203018752895162000b98565b9701930193018795938b97959262001053565b929560019295979950602091949850620012108291601f198682030187528a5162000b32565b9801930193018b9795938997959262000fe6565b634e487b7160e01b88526041600452602488fd5b634e487b7160e01b8d52604160045260248dfd5b634e487b7160e01b8c52604160045260248cfd5b634e487b7160e01b8b52604160045260248bfd5b634e487b7160e01b8b52603260045260248bfd5b60606020828b018101919091520162000cb4565b60405162461bcd60e51b815260206004820152600960248201526814d85b1d081d5cd95960ba1b6044820152606490fd5b60405162461bcd60e51b81526020600482015260166024820152754e65656420636f6d706c69616e6365206d6f64756c6560501b6044820152606490fd5b60405162461bcd60e51b8152602060048201526015602482015274092e6e6eacae45ee8dee0d2c640dad2e6dac2e8c6d605b1b6044820152606490fd5b604080516304d3863d60e21b81529395919491939092600092906004906001600160a01b0390818916906020868581855afa95861562001607578796620016ee575b5082600154169588519061135897888301916001600160401b03998484108b851117620016db5791876080949286946200176c863916825287861660208301528c82015230606082015203019088f08015620016075783169a8b96833b1562001611578951634273cc2160e11b81528681018e9052602497908a818a81838a5af18015620016bb57620016c5575b50883b156200046d578a5163144fa6d760e01b81528088018690528a818a81838e5af18015620016bb57908b91620016a3575b5050805115801562001631575b5050895190610ce5808301918211838310176200161f5790829162002ac48339039089f08015620016155784169a8b3b156200161157895163c0c53b8b60e01b81526001600160a01b039182168782019081529282166020840152921660408201528790829081900360600181838e5af180156200160757908791620015ef575b505088853b156200047157875163a1809b9560e01b8082528582018390529088818881838c5af18015620015e557908991620015cd575b5050823b15620002c85790858892838b5195869485938452898401525af18015620015c357908691620015ab575b50541691833b15620005f557908491865193849263f2fde38b60e01b84528301528183865af18015620015a15790839162001589575b5052600360205220805460ff19166001179055565b62001594906200089d565b6200020757813862001574565b84513d85823e3d90fd5b620015b6906200089d565b620005f55784386200153e565b87513d88823e3d90fd5b620015d8906200089d565b620002c857873862001510565b8a513d8b823e3d90fd5b620015fa906200089d565b62000475578538620014d9565b88513d89823e3d90fd5b8880fd5b89513d8a823e3d90fd5b634e487b7160e01b8b5260418852888bfd5b6200168f57602001518516883b156200046d578a5190632088df1b60e01b82528782015289818981838d5af180156200168557908a9115620014585762001678906200089d565b6200161157883862001458565b8b513d8c823e3d90fd5b87603288634e487b7160e01b600052526000fd5b620016ae906200089d565b6200046d5789386200144b565b8c513d8d823e3d90fd5b620016d3909a919a6200089d565b983862001418565b634e487b7160e01b8c526041895260248cfd5b9095506020813d60201162001729575b816200170d60209383620008e3565b810103126200047157518281168103620004715794386200138a565b3d9150620016fe565b156200173a57565b60405162461bcd60e51b8152602060048201526009602482015268139bdd081d985d5b1d60ba1b6044820152606490fdfe608034620000ef57601f6200135838819003918201601f19168301916001600160401b03831184841017620000f457808492608094604052833981010312620000ef576200004d816200010a565b906200005c602082016200010a565b906200008e6200007d606062000075604085016200010a565b93016200010a565b62000088336200011f565b6200011f565b60018060a01b0380928160018060a01b0319951685600254161760025516836005541617600555169060065416176006556353efaa2760e01b60005260096020526040600020600160ff198254161790556040516111f19081620001678239f35b600080fd5b634e487b7160e01b600052604160045260246000fd5b51906001600160a01b0382168203620000ef57565b600080546001600160a01b039283166001600160a01b03198216811783559216907f8be0079c531659141344cd1fd0a4f28419497f9722a3daafe3b4186f6b6457e09080a356fe608060409080825260048036101561001657600080fd5b600091823560e01c90816301ffc9a714610e4c57508063134e18f414610e23578063144fa6d714610d835780631714f2e014610c1f5780632088df1b14610bdf5780633a24aa6114610bb65780634cbc2e8c14610b885780634f02c42014610b61578063638c3a15146107775780637047d9c2146106e4578063715018a61461068a5780638da5cb5b1461066257806390884e0d1461042a578063a1809b95146103ea578063a6728fff14610382578063acc2166a14610359578063bae41cbf14610330578063c06b656814610307578063c7c4ff46146102de578063e231bff0146102b7578063f2fde38b146101f3578063fc0c546a146101ca5763fc8d50651461012157600080fd5b346101c657602090816003193601126101c257600654845163318abf2360e11b81528235928101929092526001600160a01b03919083908290602490829086165afa9384156101b7578094610182575b505060075416908351928352820152f35b909193508282813d83116101b0575b61019b8183610ed1565b810103126101ad575051913880610171565b80fd5b503d610191565b8551903d90823e3d90fd5b8280fd5b5080fd5b508290346101c257826003193601126101c2575490516001600160a01b03909116815260209150f35b508290346101c25760203660031901126101c25761020f610e8c565b90610218610fd7565b6001600160a01b0391821692831561026557505082546001600160a01b0319811683178455167f8be0079c531659141344cd1fd0a4f28419497f9722a3daafe3b4186f6b6457e08380a380f35b906020608492519162461bcd60e51b8352820152602660248201527f4f776e61626c653a206e6577206f776e657220697320746865207a65726f206160448201526564647265737360d01b6064820152fd5b8284346101c657816003193601126101c65760209060ff60025460a81c1690519015158152f35b8284346101c657816003193601126101c65760015490516001600160a01b039091168152602090f35b8284346101c657816003193601126101c65760065490516001600160a01b039091168152602090f35b8284346101c657816003193601126101c65760075490516001600160a01b039091168152602090f35b8284346101c657816003193601126101c65760035490516001600160a01b039091168152602090f35b82346101ad5760203660031901126101ad5761039c610e8c565b6103a4610fd7565b600580546001600160a01b0319166001600160a01b039290921691821790557f15214df8cd185409d6ea6507410f4f7f2e67a2b2239ee142ab9f56988dcde7198280a280f35b82346101ad5760203660031901126101ad57610404610e8c565b61040c610fd7565b60018060a01b03166001600160601b0360a01b600354161760035580f35b508290346101c25760203660031901126101c25780359160018060a01b036104578160055416331461102f565b60025460ff8160a01c16156106325760a81c60ff166105fc5783156105b95780859184541661048781151561106d565b803b156101c2578351632770a7eb60e21b815233868201908152602081018890529091849183919082908490829060400103925af180156105af576105a0575b50815b60085481101561056357816104de826110f8565b50541660016104ec836110f8565b50015490803b1561055f5785516323b872dd60e01b8152308882019081523360208201526040810193909352918591839182908490829060600103925af1801561055557906105419291610546575b506110a9565b6104ca565b61054f90610ea7565b8861053b565b85513d86823e3d90fd5b8480fd5b6002805460ff60a81b1916600160a81b1790558286337f696de425f79f4a40bc6d2122ca50507f0efbeabbff86a84871b7196ab8ea8df78380a380f35b6105a990610ea7565b866104c7565b84513d85823e3d90fd5b815162461bcd60e51b8152602081850181905260248201527f416d6f756e74206d7573742062652067726561746572207468616e207a65726f6044820152606490fd5b815162461bcd60e51b8152602081850152601060248201526f105b1c9958591e481c995919595b595960821b6044820152606490fd5b825162461bcd60e51b8152602081860152600a602482015269139bdd081b5a5b9d195960b21b6044820152606490fd5b8284346101c657816003193601126101c657905490516001600160a01b039091168152602090f35b82346101ad57806003193601126101ad576106a3610fd7565b80546001600160a01b03198116825581906001600160a01b03167f8be0079c531659141344cd1fd0a4f28419497f9722a3daafe3b4186f6b6457e08280a380f35b5082346101c257806003193601126101c25767ffffffffffffffff823581811161055f576107159036908501610f0b565b9060243590811161055f5761072d9036908501610f79565b90610736610fd7565b51905103610742578280f35b906020606492519162461bcd60e51b8352820152600f60248201526e098cadccee8d040dad2e6dac2e8c6d608b1b6044820152fd5b509190346101ad5760603660031901126101ad5767ffffffffffffffff9280358481116101c2576107ab9036908301610f0b565b602491823586811161055f576107c49036908301610f79565b9260449687359660018060a01b03986107e28a60055416331461102f565b60ff60025460a01c16610b2f578551875181149081610b25575b5015610af0576108108a865416151561106d565b875b8651811015610a40578a610824611132565b168b610830838a6110ce565b5116845191829163a66250af60e01b835289830152818860209485935afa9081156109ca578b91610a06575b50156109d8578b61086d838a6110ce565b5116610879838b6110ce565b5190803b156109d45785516323b872dd60e01b815233818b019081523060208201526040810193909352918c91839182908490829060600103925af180156109ca576109bb575b508b6108cc838a6110ce565b5116906108d9838b6110ce565b5190855192868401848110898211176109a9578752835282019081526008908154680100000000000000008110156109975761091c9060019384820190556110f8565b939093610986575183546001600160a01b031916908f1617835551910155610981908b610949828a6110ce565b5116610955828b6110ce565b5190337f8752a472e571a816aea92eec8dae9baf628e840f4929fbcc2d155e6233ff68a78d80a46110a9565b610812565b634e487b7160e01b8d528c8a52888dfd5b634e487b7160e01b8d5260418a52888dfd5b634e487b7160e01b8e5260418b52898efd5b6109c490610ea7565b386108c0565b85513d8d823e3d90fd5b8b80fd5b866a139bdd081495d04813919560aa1b84600b8960649589519562461bcd60e51b8752860152840152820152fd5b90508181813d8311610a39575b610a1d8183610ed1565b81010312610a3557518015158103610a35573861085c565b8a80fd5b503d610a13565b888a8785838f336001600160601b0360a01b600154161760015583541692833b156101c65782516340c10f1960e01b8152339181019182526020820186905293849182908490829060400103925af1908115610ae75750610ad8575b506002805460ff60a01b1916600160a01b179055337f30385c845b448a36257a6a1716e6ad2e1bc2cbe333cde1e69fe849ad6511adfe8380a380f35b610ae190610ea7565b82610a9c565b513d85823e3d90fd5b70125b9d985b1a5908139195081a5b9c1d5d607a1b85916011866020606496519562461bcd60e51b8752860152840152820152fd5b90501515386107fc565b6d105b1c9958591e481b5a5b9d195960921b8591600e866020606496519562461bcd60e51b8752860152840152820152fd5b8284346101c657816003193601126101c65760209060ff60025460a01c1690519015158152f35b8284346101c657816003193601126101c657602090610ba5611132565b90516001600160a01b039091168152f35b8284346101c657816003193601126101c65760055490516001600160a01b039091168152602090f35b82346101ad5760203660031901126101ad57610bf9610e8c565b610c01610fd7565b60018060a01b03166001600160601b0360a01b600754161760075580f35b8284346101c657816003193601126101c65760085490610c3e82610ef3565b90610c4b81519283610ed1565b828252601f199283610c5c82610ef3565b01855b818110610d70575050845b818110610d02575050805192602080850191818652845180935281848701948460051b88010195019387915b848310610ca35787870388f35b909192939495603f19888203018352848288518b815191828652815b838110610ce8575050818501840152601f01169091018101968101959493600101920190610c96565b8082018601518782018701528a958895508f935001610cbf565b80610d12610d68929694966110f8565b50546001600160a01b0316610d536001610d2b846110f8565b50015488516001600160a01b0393909316602084015260408301526060868101835282610ed1565b610d5d82876110ce565b5261053b81866110ce565b939193610c6a565b6060602082870181019190915201610c5f565b508290346101c25760203660031901126101c257610d9f610e8c565b91610da8610fd7565b8154926001600160a01b0391828516610df557501680926001600160601b0360a01b161790557fa07c91c183e42229e705a9795a1c06d76528b673788b849597364528c96eefb78280a280f35b5162461bcd60e51b81526020818501526009602482015268151bdad95b881cd95d60ba1b6044820152606490fd5b8284346101c657816003193601126101c65760025490516001600160a01b039091168152602090f35b9184915034610e88576020366003190112610e88573563ffffffff60e01b8116809103610e885783526009602090815292205460ff1615158152f35b8380fd5b600435906001600160a01b0382168203610ea257565b600080fd5b67ffffffffffffffff8111610ebb57604052565b634e487b7160e01b600052604160045260246000fd5b90601f8019910116810190811067ffffffffffffffff821117610ebb57604052565b67ffffffffffffffff8111610ebb5760051b60200190565b81601f82011215610ea257803591610f2283610ef3565b92610f306040519485610ed1565b808452602092838086019260051b820101928311610ea2578301905b828210610f5a575050505090565b81356001600160a01b0381168103610ea2578152908301908301610f4c565b81601f82011215610ea257803591610f9083610ef3565b92610f9e6040519485610ed1565b808452602092838086019260051b820101928311610ea2578301905b828210610fc8575050505090565b81358152908301908301610fba565b6000546001600160a01b03163303610feb57565b606460405162461bcd60e51b815260206004820152602060248201527f4f776e61626c653a2063616c6c6572206973206e6f7420746865206f776e65726044820152fd5b1561103657565b60405162461bcd60e51b815260206004820152600f60248201526e2737ba103b30bab63a103a30b5b2b960891b6044820152606490fd5b1561107457565b60405162461bcd60e51b815260206004820152600d60248201526c151bdad95b881b9bdd081cd95d609a1b6044820152606490fd5b60001981146110b85760010190565b634e487b7160e01b600052601160045260246000fd5b80518210156110e25760209160051b010190565b634e487b7160e01b600052603260045260246000fd5b6008548110156110e257600860005260011b7ff3f7a9fe364faab93b216da50a3214154f22a0a2b415b23a84c8169e8b636ee30190600090565b60065460405163de981f1b60e01b8152600160048201526001600160a01b03916020908290602490829086165afa9081156111af57600091611175575b50905090565b6020813d82116111a7575b8161118d60209383610ed1565b810103126101c6575191821682036101ad5750803861116f565b3d9150611180565b6040513d6000823e3d90fdfea2646970667358221220cbf000914555370255df78d163d7f80ffef7bc4509148d5e1a34936ff288990e64736f6c634300081100336080806040523461005b5760008054336001600160a01b0319821681178355916001600160a01b03909116907f8be0079c531659141344cd1fd0a4f28419497f9722a3daafe3b4186f6b6457e09080a3610c8490816100618239f35b600080fdfe608060408181526004918236101561001657600080fd5b600092833560e01c918263128fced1146107365750816338d52e0f1461070d578163481c6a75146106e45781634e71d92d14610667578163715018a61461060a5781637cf4c01b1461044c5781638da5cb5b14610424578163a262f5f814610362578163aaf5eb681461033f578163bffdd9f1146102a7578163c0c53b8b146101e1578163d890a870146101c3578163eb7f5b5d1461018b578163f2fde38b146100f5575063fc0c546a146100ca57600080fd5b346100f157816003193601126100f15760015490516001600160a01b039091168152602090f35b5080fd5b9050346101875760203660031901126101875761011061076a565b9161011961079b565b6001600160a01b038316156101355783610132846107f3565b80f35b906020608492519162461bcd60e51b8352820152602660248201527f4f776e61626c653a206e6577206f776e657220697320746865207a65726f206160448201526564647265737360d01b6064820152fd5b8280fd5b5050346100f15760203660031901126100f15760209181906001600160a01b036101b361076a565b1681526005845220549051908152f35b90503461018757826003193601126101875760209250549051908152f35b839150346100f15760603660031901126100f1576101fd61076a565b90610206610785565b604435926001600160a01b0380851693919290918486036102a3576007549060ff8216610272575061013296975060019060ff191617600755816bffffffffffffffffffffffff60a01b93168360015416176001551681600254161760025560035416176003556107f3565b60649060208a519162461bcd60e51b8352820152600b60248201526a125b9a5d1a585b1a5e995960aa1b6044820152fd5b8680fd5b919050346101875780600319360112610187576102c261076a565b6102ca610785565b60015490936001600160a01b039390918416330361030f575050818116610300575b5081166102f7575080f35b61013290610b4a565b61030990610b4a565b386102ec565b906020606492519162461bcd60e51b8352820152600a60248201526927b7363c903a37b5b2b760b11b6044820152fd5b5050346100f157816003193601126100f15760209051670de0b6b3a76400008152f35b839150346100f15760203660031901126100f15761037e61076a565b6001600160a01b038181169283156103f75750936103cf9184956103a133610b4a565b3386526006602052828620549586936103bb851515610ab9565b338252600660205281205560025416610af8565b337ff7a40077ff7a04c7e61f6f26fb13774259ddf1b6bce9ecf26a8276cdd39926838480a480f35b606490602087519162461bcd60e51b835282015260076024820152665a65726f20746f60c81b6044820152fd5b5050346100f157816003193601126100f157905490516001600160a01b039091168152602090f35b839150346100f157602090816003193601126101875780359182156105da5760025485516323b872dd60e01b83820152336024820152306044820152606480820186905281526001600160a01b039691871660a0820167ffffffffffffffff8111838210176105c757849286979899926104c7928652610895565b600154168251948580926318160ddd60e01b82525afa9283156105bd57869361058a575b50821561055d575050670de0b6b3a76400008302670de0b6b3a763ffff198482040161054a579061051e91048254610872565b91828092557f7dc3e8d1940333b093f7f5c4210006bca8607c5c022e84a8f89a1d5ff97898908480a480f35b634e487b7160e01b855260118352602485fd5b5162461bcd60e51b8152928301525060096024820152684e6f20737570706c7960b81b6044820152606490fd5b9092508181813d83116105b6575b6105a2818361083a565b810103126105b2575191866104eb565b8580fd5b503d610598565b81513d88823e3d90fd5b634e487b7160e01b885260418652602488fd5b845162461bcd60e51b815291820152600b60248201526a16995c9bc8185b5bdd5b9d60aa1b604482015260649150fd5b833461066457806003193601126106645761062361079b565b80546001600160a01b03198116825581906001600160a01b03167f8be0079c531659141344cd1fd0a4f28419497f9722a3daafe3b4186f6b6457e08280a380f35b80fd5b5050346100f157816003193601126100f15761068233610b4a565b338252600660205281818120549161069b831515610ab9565b33825260066020528120556106bb813360018060a01b0360025416610af8565b33337ff7a40077ff7a04c7e61f6f26fb13774259ddf1b6bce9ecf26a8276cdd39926838480a480f35b5050346100f157816003193601126100f15760035490516001600160a01b039091168152602090f35b5050346100f157816003193601126100f15760025490516001600160a01b039091168152602090f35b84908434610187576020366003190112610187576020926001600160a01b0361075d61076a565b1681526006845220548152f35b600435906001600160a01b038216820361078057565b600080fd5b602435906001600160a01b038216820361078057565b6000546001600160a01b031633036107af57565b606460405162461bcd60e51b815260206004820152602060248201527f4f776e61626c653a2063616c6c6572206973206e6f7420746865206f776e65726044820152fd5b600080546001600160a01b039283166001600160a01b03198216811783559216907f8be0079c531659141344cd1fd0a4f28419497f9722a3daafe3b4186f6b6457e09080a3565b90601f8019910116810190811067ffffffffffffffff82111761085c57604052565b634e487b7160e01b600052604160045260246000fd5b9190820180921161087f57565b634e487b7160e01b600052601160045260246000fd5b60018060a01b0316906040516040810167ffffffffffffffff908281108282111761085c576040526020938483527f5361666545524332303a206c6f772d6c6576656c2063616c6c206661696c6564858401526000808587829751910182855af1903d156109da573d9283116109c657906109309392916040519261092388601f19601f840116018561083a565b83523d868885013e6109e5565b8051918215918483156109a2575b50505090501561094b5750565b6084906040519062461bcd60e51b82526004820152602a60248201527f5361666545524332303a204552433230206f7065726174696f6e20646964206e6044820152691bdd081cdd58d8d9595960b21b6064820152fd5b9193818094500103126100f15782015190811515820361066457508038808461093e565b634e487b7160e01b85526041600452602485fd5b906109309392506060915b91929015610a4757508151156109f9575090565b3b15610a025790565b60405162461bcd60e51b815260206004820152601d60248201527f416464726573733a2063616c6c20746f206e6f6e2d636f6e74726163740000006044820152606490fd5b825190915015610a5a5750805190602001fd5b6040519062461bcd60e51b82528160208060048301528251908160248401526000935b828510610aa0575050604492506000838284010152601f80199101168101030190fd5b8481018201518686016044015293810193859350610a7d565b15610ac057565b60405162461bcd60e51b815260206004820152601060248201526f4e6f7468696e6720746f20636c61696d60801b6044820152606490fd5b60405163a9059cbb60e01b60208201526001600160a01b039092166024830152604480830193909352918152608081019167ffffffffffffffff83118284101761085c57610b4892604052610895565b565b6001546040516370a0823160e01b81526001600160a01b0392831660048201819052929091602091829184916024918391165afa918215610c4257600092610c13575b506004549183600052600582526040600020548084039380851161087f57141580610c0a575b610bcd575b50600591506004549260005252604060002055565b82810292818404149015171561087f576005918360005260068252610c02670de0b6b3a7640000604060002092048254610872565b905538610bb8565b50801515610bb3565b90918282813d8311610c3b575b610c2a818361083a565b810103126106645750519038610b8d565b503d610c20565b6040513d6000823e3d90fdfea2646970667358221220fbb0fac11d2653850383012a0b9b86f88bd4ed48be5d368f8a43a43d437c22a664736f6c63430008110033a2646970667358221220a49e662d19c3de0444deea563a3ffb15e5842748dedd5650ed1fa0d25027b22064736f6c63430008110033",
  "linkReferences": {},
  "deployedLinkReferences": {},
  "immutableReferences": {},
  "inputSourceName": "project/contracts/src/vault/ArbVaultFactory.sol",
  "devdoc": {
    "kind": "dev",
    "methods": {
      "owner()": {
        "details": "Returns the address of the current owner."
      },
      "renounceOwnership()": {
        "details": "Leaves the contract without owner. It will not be possible to call `onlyOwner` functions. Can only be called by the current owner. NOTE: Renouncing ownership will leave the contract without an owner, thereby disabling any functionality that is only available to the owner."
      },
      "transferOwnership(address)": {
        "details": "Transfers ownership of the contract to a new account (`newOwner`). Can only be called by the current owner."
      }
    },
    "title": "ArbVaultFactory — ERC-3643 T-REX suite + RWA vault per asset pool",
    "version": 1
  },
  "evm": {
    "gasEstimates": {
      "creation": {
        "codeDepositCost": "2860400",
        "executionCost": "infinite",
        "totalCost": "infinite"
      },
      "external": {
        "attachVaultPeers(address,address,address,address[])": "infinite",
        "createVault(address,string,string,address,address,address[],uint256[],address[])": "infinite",
        "deployTrexVault(string,string,address[],uint256[],address[])": "infinite",
        "infoDesk()": "2515",
        "isArbVault(address)": "2484",
        "owner()": "2405",
        "pauseVaultToken(address)": "infinite",
        "renounceOwnership()": "28155",
        "setInfoDesk(address)": "26807",
        "setTrexFactory(address)": "26893",
        "transferOwnership(address)": "28431",
        "trexFactory()": "2427",
        "unpauseVaultToken(address)": "infinite"
      },
      "internal": {
        "_attachVaultPeers(address,address,address,address[] memory)": "infinite",
        "_deployTrexSuite(string memory,string memory,address[] memory,uint256[] memory,address[] memory)": "infinite"
      }
    }
  },
  "storageLayout": {
    "storage": [
      {
        "astId": 476,
        "contract": "project/contracts/src/vault/ArbVaultFactory.sol:ArbVaultFactory",
        "label": "_owner",
        "offset": 0,
        "slot": "0",
        "type": "t_address"
      },
      {
        "astId": 7101,
        "contract": "project/contracts/src/vault/ArbVaultFactory.sol:ArbVaultFactory",
        "label": "infoDesk",
        "offset": 0,
        "slot": "1",
        "type": "t_address"
      },
      {
        "astId": 7103,
        "contract": "project/contracts/src/vault/ArbVaultFactory.sol:ArbVaultFactory",
        "label": "trexFactory",
        "offset": 0,
        "slot": "2",
        "type": "t_address"
      },
      {
        "astId": 7107,
        "contract": "project/contracts/src/vault/ArbVaultFactory.sol:ArbVaultFactory",
        "label": "_isVault",
        "offset": 0,
        "slot": "3",
        "type": "t_mapping(t_address,t_bool)"
      },
      {
        "astId": 7111,
        "contract": "project/contracts/src/vault/ArbVaultFactory.sol:ArbVaultFactory",
        "label": "_tokenBySalt",
        "offset": 0,
        "slot": "4",
        "type": "t_mapping(t_string_memory_ptr,t_address)"
      },
      {
        "astId": 7113,
        "contract": "project/contracts/src/vault/ArbVaultFactory.sol:ArbVaultFactory",
        "label": "_vaultNonce",
        "offset": 0,
        "slot": "5",
        "type": "t_uint256"
      }
    ],
    "types": {
      "t_address": {
        "encoding": "inplace",
        "label": "address",
        "numberOfBytes": "20"
      },
      "t_bool": {
        "encoding": "inplace",
        "label": "bool",
        "numberOfBytes": "1"
      },
      "t_mapping(t_address,t_bool)": {
        "encoding": "mapping",
        "key": "t_address",
        "label": "mapping(address => bool)",
        "numberOfBytes": "32",
        "value": "t_bool"
      },
      "t_mapping(t_string_memory_ptr,t_address)": {
        "encoding": "mapping",
        "key": "t_string_memory_ptr",
        "label": "mapping(string => address)",
        "numberOfBytes": "32",
        "value": "t_address"
      },
      "t_string_memory_ptr": {
        "encoding": "bytes",
        "label": "string",
        "numberOfBytes": "32"
      },
      "t_uint256": {
        "encoding": "inplace",
        "label": "uint256",
        "numberOfBytes": "32"
      }
    }
  },
  "userdoc": {
    "kind": "user",
    "methods": {
      "attachVaultPeers(address,address,address,address[])": {
        "notice": "Step 2 — deploy ArbVault + RewardDistributor and wire agents"
      },
      "deployTrexVault(string,string,address[],uint256[],address[])": {
        "notice": "Step 1 — deploy ERC-3643 token + registries (heavy; may need its own tx on gas-capped networks)"
      }
    },
    "version": 1
  },
  "argsData": "0x000000000000000000000000d41587f9d5df02662afa4ac60626154985e9149a000000000000000000000000cf4e9d4a44fe037a84ff9bfec3ac7a4e98593cd7000000000000000000000000e8a7a57c74d9e1d4ae2af584d01aa89ddf79944f",
  "transaction": {
    "nonce": "0x1e",
    "hash": "0x004fade9dad23c0bb053bcbadd1f020786dd593085e34f2355369155d6a8caa6",
    "origin": "0xd41587f9d5df02662afa4ac60626154985e9149a"
  }
}