{
  "address": "0xf9a4812e09935720e12d1bbf56823a0fb18ce5c7",
  "abi": [
    {
      "inputs": [
        {
          "internalType": "address",
          "name": "infoDesk",
          "type": "address"
        },
        {
          "internalType": "address",
          "name": "feeToken",
          "type": "address"
        },
        {
          "internalType": "address",
          "name": "rwaNftRegistry",
          "type": "address"
        }
      ],
      "name": "deployContractNft",
      "outputs": [
        {
          "internalType": "address",
          "name": "",
          "type": "address"
        }
      ],
      "stateMutability": "nonpayable",
      "type": "function"
    }
  ],
  "contractName": "ContractNftFactory",
  "sourceName": "contracts/src/nft/ContractNftFactory.sol",
  "bytecode": "0x6080806040523461001657612b81908161001c8239f35b600080fdfe608080604052600436101561001357600080fd5b600090813560e01c63c595e41d1461002a57600080fd5b346100e55760603660031901126100e5576001600160a01b0390600435828116908190036100e1576024358381168091036100dd57604435908482168092036100d957612a62928385019385851067ffffffffffffffff8611176100c55791859391606095936100ea863983526020830152604082015203019083f09081156100ba576020925060405191168152f35b6040513d84823e3d90fd5b634e487b7160e01b88526041600452602488fd5b8580fd5b8480fd5b8380fd5b5080fdfe608034620003ba57601f1990601f6001600160401b0362002a623881900383810186168501919083831186841017620003a457808692606094604052833981010312620003ba576200005183620003df565b9060209062000070604062000068848801620003df565b9601620003df565b936200007b620003bf565b92600c84526b10dbdb9d1c9858dd0813919560a21b818501526200009e620003bf565b90600482526310d3919560e21b81830152845190848211620003a4576000918254966001978881811c9116801562000399575b84821014620003855790818784931162000332575b508390878311600114620002d1578592620002c5575b5050600019600383901b1c191690871b1782555b8251948511620002b157855499868b811c9b168015620002a6575b828c101462000292578a858798999a9b9c1162000237575b5081948611600114620001d357505092620001c7575b5050600019600383901b1c191690821b1790555b60068054610100600160a81b031916600892831b610100600160a81b0316179055600780546001600160a01b03199081166001600160a01b03958616179091558154169190921617905560405161266d9081620003f58239f35b01519050388062000159565b8783528183208897909594939116915b8282106200021d575050841162000203575b505050811b0190556200016d565b015160001960f88460031b161c19169055388080620001f5565b8484015186558897909501949384019390810190620001e3565b909192939495508784528284208680890160051c820192858a1062000288575b9189988b929897969594930160051c01915b8281106200027957505062000143565b8581558998508a910162000269565b9250819262000257565b634e487b7160e01b83526022600452602483fd5b9a607f169a6200012b565b634e487b7160e01b82526041600452602482fd5b015190503880620000fc565b908d8a94169186805285872092875b878282106200031b575050841162000301575b505050811b01825562000110565b015160001960f88460031b161c19169055388080620002f3565b8385015186558d97909501949384019301620002e0565b9091508480528385208780850160051c8201928686106200037b575b918b91869594930160051c01915b8281106200036c575050620000e6565b8781558594508b91016200035c565b925081926200034e565b634e487b7160e01b85526022600452602485fd5b90607f1690620000d1565b634e487b7160e01b600052604160045260246000fd5b600080fd5b60408051919082016001600160401b03811183821017620003a457604052565b51906001600160a01b0382168203620003ba5756fe608060408181526004918236101561001657600080fd5b600092833560e01c91826301ffc9a7146112e35750816306fdde031461123b578163081812fc1461121b578163095ea7b3146110ad5781632267eec91461103657816323b872dd146110115781632804745014610f3c57816342842e0e14610f085781634d6d6a9c14610e935781634f9a0994146109f45781636352211e146109c3578163647846a51461099a5781636ebc8c861461094e5781636f8fc21f146108a157816370a082311461080b5781638ba48372146107c65781639537e8d11461067e57816395d89b411461059b5781639b8291cf1461050f578163a22cb4651461043b578163a2f79f8e14610393578163a7aea5461461036a578163b88d4fde146102dc578163c06b6568146102af578163c87b56dd14610244578163d75f0da714610220578163e38a01c0146101f457508063e985e9c5146101a75763eb57955d1461016457600080fd5b346101a357816003193601126101a35761019f90610180611fc5565b91519081526001600160a01b0390911660208201529081906040820190565b0390f35b5080fd5b50346101a357806003193601126101a35760ff816020936101c661138e565b6101ce6113a9565b6001600160a01b0391821683526005875283832091168252855220549151911615158152f35b82843461021d57602036600319011261021d575061021460209235611f6f565b90519015158152f35b80fd5b5050346101a357816003193601126101a35760209060ff6006541690519015158152f35b8383346101a35760203660031901126101a35761028261027d61019f9435600052600260205260018060a01b0360406000205416151590565b61156d565b81815161028e81611431565b5280519161029b83611431565b82525191829160208352602083019061134e565b5050346101a357816003193601126101a357600654905160089190911c6001600160a01b03168152602090f35b8390346101a35760803660031901126101a3576102f761138e565b906103006113a9565b916044356064359367ffffffffffffffff851161036657366023860112156103665761033b61035e9486602461036398369301359101611518565b9261034e61034984336117c3565b6116ea565b61035983838361188b565b611ad4565b61179f565b80f35b8580fd5b5050346101a357816003193601126101a35760085490516001600160a01b039091168152602090f35b8383346101a3576020918260031936011261021d57836103ce9435825260098452828220908101835195869285878501526060840190611f29565b92601f19938484820301868501528683549182815201928252868220915b8782821061041b57859061019f8961040c8a858a03908101865285611463565b5192828493845283019061134e565b83546001600160a01b0316855289955090930192600192830192016103ec565b9190503461050b578060031936011261050b5761045661138e565b9060243591821515809303610507576001600160a01b0316923384146104c55750338452600560205280842083855260205280842060ff1981541660ff8416179055519081527f17307eab39ab6107e8899845ad3d59bd9653f200f220920489ca2b5937696c3160203392a380f35b6020606492519162461bcd60e51b8352820152601960248201527f4552433732313a20617070726f766520746f2063616c6c6572000000000000006044820152fd5b8480fd5b8280fd5b82843461021d57608036600319011261021d5761052a61138e565b67ffffffffffffffff6024358181116105975761054a9036908701611485565b9260643591821161021d575061056860209561058d9236910161154f565b9161057f8551938492888401966044359188611b4f565b03601f198101835282611463565b5190209051908152f35b8380fd5b5050346101a357816003193601126101a3578051908260018054916105bf836115dc565b8086529282811690811561065657506001146105fa575b5050506105e88261019f940383611463565b5191829160208352602083019061134e565b94508085527fb10e2d527612073b26eecdfd717e6a320cf44b4afac2b0732d9fcbe2b7fa0cf65b82861061063e575050506105e882602061019f95820101946105d6565b80546020878701810191909152909501948101610621565b61019f9750869350602092506105e894915060ff191682840152151560051b820101946105d6565b839150346101a35760203660031901126101a3578035906106a460ff6006541615611d5a565b818352600960205283832090600582015460ff81161590816107b7575b5015610789576106d13384612561565b15610754576106e033846125db565b6107205761036392916106f591339101611e50565b33817fcd3b1fcca80f9caae633c3e13546995d3810e561957af92839f070c46571942c8580a361226d565b606490602086519162461bcd60e51b8352820152600e60248201526d105b1c9958591e481cda59db995960921b6044820152fd5b606490602086519162461bcd60e51b8352820152600f60248201526e139bdd081c185c9d1a58da5c185b9d608a1b6044820152fd5b606490602086519162461bcd60e51b83528201526008602482015267496e61637469766560c01b6044820152fd5b60ff915060081c1615866106c1565b82843461021d57602036600319011261021d57506107e660a09235611b89565b9394919092825195151586521515602086015215159084015260608301526080820152f35b839150346101a35760203660031901126101a3576001600160a01b0361082f61138e565b1690811561084c5760208480858581526003845220549051908152f35b608490602085519162461bcd60e51b8352820152602960248201527f4552433732313a2061646472657373207a65726f206973206e6f7420612076616044820152683634b21037bbb732b960b91b6064820152fd5b82843461021d576020908160031936011261021d5782906001600160a01b036108c861138e565b168152600b8352818120908251808584549182815201908194845286842090845b81811061093a57505050816108ff910382611463565b83519485948186019282875251809352850193925b82811061092357505050500390f35b835185528695509381019392810192600101610914565b8254845292880192600192830192016108e9565b9190503461050b5760209182600319360112610597579061040c8161098c9561019f94358152600a8652208251958691868084015284830190611f29565b03601f198101865285611463565b5050346101a357816003193601126101a35760075490516001600160a01b039091168152602090f35b82843461021d57602036600319011261021d57506109e3602092356115b9565b90516001600160a01b039091168152f35b838360603660031901126101a35767ffffffffffffffff9183358381116101a357610a229036908601611485565b9360443584811161050b57610a3a903690830161154f565b90610a4a60ff6006541615611d5a565b610a52611fc5565b9080610d3c575b505083519060209687830160243593610a798161057f8888873388611b4f565b51902096610a8688611f6f565b15610d0e578786526009895286862087516080810181811084821117610ccd578952338152838b8201526060898201918783520190878252336bffffffffffffffffffffffff60a01b8454161783558451848111610cfb576001958d87860191610af08484611da7565b01908b528d87818d20918d905b858210610ce057505050505050516002830155600382019051928351908111610ccd57610b3481610b2e84546115dc565b84611ddd565b8b8c601f8311600114610c6757508190610b6c958b92610c5c575b5050600019600383901b1c191690851b1790555b83339101611e50565b338552600b885285852090815492600160401b841015610c495750610bba8389959386937f652cd4c12cc0bef561f6845dcd70e2c439642f4b5b93f0efef37a7510918d92496018155611e22565b819291549060031b600019811b9283911b1691191617905585519033847f7c3ccecc6df31e87fcd15283a2cdcbe81545411dd25ba6df8eb64a1ddd4973a18880a38152858882015280610c1133958883019061134e565b0390a3827fcd3b1fcca80f9caae633c3e13546995d3810e561957af92839f070c46571942c339280a3610c438261226d565b51908152f35b634e487b7160e01b875260419052602486fd5b015190508d80610b4f565b869291601f198316858d52828d20928d905b828210610cb45750509683610b6c9810610c9b575b505050811b019055610b63565b015160001960f88460031b161c191690558d8080610c8e565b838a015185558a96909401939283019290810190610c79565b634e487b7160e01b895260418652602489fd5b60018060a01b0385511694019381840155018f908991610afd565b634e487b7160e01b8a526041875260248afd5b865162461bcd60e51b81528084018a9052600860248201526724a2103a30b5b2b760c11b6044820152606490fd5b60018060a01b039182600754169187519360208501926323b872dd60e01b845233602487015216604485015260648401526064835260a083019280841089851117610e805760e081018481108a821117610e6d578852602084527f5361666545524332303a206c6f772d6c6576656c2063616c6c206661696c656460c082015251610dd99392918791829182855af1610dd36119b0565b91611e90565b8051908115918215610e4a575b505015610df4578680610a59565b608490602085519162461bcd60e51b8352820152602a60248201527f5361666545524332303a204552433230206f7065726174696f6e20646964206e6044820152691bdd081cdd58d8d9595960b21b6064820152fd5b819250906020918101031261059757602001518015158103610597578780610de6565b634e487b7160e01b885260418652602488fd5b634e487b7160e01b875260418552602487fd5b82843461021d57602036600319011261021d5750610eb4610ef09235611c40565b9497929093610edf8893979851998a9960018060a01b03168a5260e060208b015260e08a01906113f4565b92880152868203606088015261134e565b9215156080850152151560a084015260c08301520390f35b5050346101a35761035e61036391610f1f366113bf565b91925192610f2c84611431565b86845261034e61034984336117c3565b9050602036600319011261050b578035808452600960205282842080549193916001600160a01b03163303610fde576005019182549160ff8360081c16610faf57505060ff191660011790557f2d5f5ed000d42aa6f6fc13400f7d7161cd1bea793fec354b11e3451f9f2b07c38280a280f35b906020606492519162461bcd60e51b8352820152600960248201526810dbdb5c1b195d195960ba1b6044820152fd5b815162461bcd60e51b8152602081850152600d60248201526c2737ba1034b734ba34b0ba37b960991b6044820152606490fd5b833461021d57610363611023366113bf565b9161103161034984336117c3565b61188b565b90503461050b57602036600319011261050b57803591821515809303610597576008546001600160a01b0316330361107b57505060ff80196006541691161760065580f35b906020606492519162461bcd60e51b8352820152600c60248201526b4e6f7420726567697374727960a01b6044820152fd5b90503461050b578160031936011261050b576110c761138e565b6024359290916001600160a01b03919082806110e2876115b9565b169416938085146111ce578033149081156111af575b501561114757848652602052842080546001600160a01b0319168317905561111f836115b9565b167f8c5be1e5ebec7d5bd14f71427d1e84f3dd0314c0f7b2291e5b200ac8c7c3b9258480a480f35b6020608492519162461bcd60e51b8352820152603d60248201527f4552433732313a20617070726f76652063616c6c6572206973206e6f7420746f60448201527f6b656e206f776e6572206f7220617070726f76656420666f7220616c6c0000006064820152fd5b90508652600560205281862033875260205260ff8287205416386110f8565b506020608492519162461bcd60e51b8352820152602160248201527f4552433732313a20617070726f76616c20746f2063757272656e74206f776e656044820152603960f91b6064820152fd5b82843461021d57602036600319011261021d57506109e3602092356116ac565b5050346101a357816003193601126101a35780519082805461125c816115dc565b808552916001918083169081156106565750600114611287575050506105e88261019f940383611463565b80809650527f290decd9548b62a8d60345a988386fc84ba6bc95484008f6362f93160ef3e5635b8286106112cb575050506105e882602061019f95820101946105d6565b805460208787018101919091529095019481016112ae565b84913461050b57602036600319011261050b573563ffffffff60e01b811680910361050b57602092506380ac58cd60e01b811490811561133d575b811561132c575b5015158152f35b6301ffc9a760e01b14905083611325565b635b5e139f60e01b8114915061131e565b919082519283825260005b84811061137a575050826000602080949584010152601f8019910116010190565b602081830181015184830182015201611359565b600435906001600160a01b03821682036113a457565b600080fd5b602435906001600160a01b03821682036113a457565b60609060031901126113a4576001600160a01b039060043582811681036113a4579160243590811681036113a4579060443590565b90815180825260208080930193019160005b828110611414575050505090565b83516001600160a01b031685529381019392810192600101611406565b6020810190811067ffffffffffffffff82111761144d57604052565b634e487b7160e01b600052604160045260246000fd5b90601f8019910116810190811067ffffffffffffffff82111761144d57604052565b9080601f830112156113a45781359067ffffffffffffffff821161144d578160051b604051936020936114ba85840187611463565b855283808601928201019283116113a4578301905b8282106114dd575050505090565b81356001600160a01b03811681036113a45781529083019083016114cf565b67ffffffffffffffff811161144d57601f01601f191660200190565b929192611524826114fc565b916115326040519384611463565b8294818452818301116113a4578281602093846000960137010152565b9080601f830112156113a45781602061156a93359101611518565b90565b1561157457565b60405162461bcd60e51b815260206004820152601860248201527f4552433732313a20696e76616c696420746f6b656e20494400000000000000006044820152606490fd5b6000908152600260205260409020546001600160a01b031661156a81151561156d565b90600182811c9216801561160c575b60208310146115f657565b634e487b7160e01b600052602260045260246000fd5b91607f16916115eb565b9060009291805491611627836115dc565b9182825260019384811690816000146116895750600114611649575b50505050565b90919394506000526020928360002092846000945b838610611675575050505001019038808080611643565b80548587018301529401938590820161165e565b9294505050602093945060ff191683830152151560051b01019038808080611643565b6000818152600260205260409020546116cf906001600160a01b0316151561156d565b6000908152600460205260409020546001600160a01b031690565b156116f157565b60405162461bcd60e51b815260206004820152602d60248201527f4552433732313a2063616c6c6572206973206e6f7420746f6b656e206f776e6560448201526c1c881bdc88185c1c1c9bdd9959609a1b6064820152608490fd5b60809060208152603260208201527f4552433732313a207472616e7366657220746f206e6f6e20455243373231526560408201527131b2b4bb32b91034b6b83632b6b2b73a32b960711b60608201520190565b156117a657565b60405162461bcd60e51b8152806117bf6004820161174c565b0390fd5b906001600160a01b0380806117d7846115b9565b1693169183831493841561180a575b5083156117f4575b50505090565b611800919293506116ac565b16143880806117ee565b909350600052600560205260406000208260005260205260ff6040600020541692386117e6565b1561183857565b60405162461bcd60e51b815260206004820152602560248201527f4552433732313a207472616e736665722066726f6d20696e636f72726563742060448201526437bbb732b960d91b6064820152608490fd5b906118b391611899846115b9565b6001600160a01b0393918416928492909183168414611831565b1691821561195f57816118df916118cf60ff6006541615611d5a565b6118d8866115b9565b1614611831565b7fddf252ad1be2c89b69c2b068fc378daa952ba7f163c4a11628f55a4df523b3ef60008481526004602052604081206bffffffffffffffffffffffff60a01b9081815416905583825260036020526040822060001981540190558482526040822060018154019055858252600260205284604083209182541617905580a4565b60405162461bcd60e51b8152602060048201526024808201527f4552433732313a207472616e7366657220746f20746865207a65726f206164646044820152637265737360e01b6064820152608490fd5b3d156119db573d906119c1826114fc565b916119cf6040519384611463565b82523d6000602084013e565b606090565b9091600091803b15611acb57611a2b6020918493604051948580948193630a85bd0160e11b9a8b8452336004850152846024850152604484015260806064840152608483019061134e565b03926001600160a01b03165af190829082611a83575b5050611a7557611a4f6119b0565b80519081611a705760405162461bcd60e51b8152806117bf6004820161174c565b602001fd5b6001600160e01b0319161490565b909192506020813d8211611ac3575b81611a9f60209383611463565b810103126101a35751906001600160e01b03198216820361021d5750903880611a41565b3d9150611a92565b50505050600190565b91926000929190813b15611b4557602091611b2a9185604051958680958194630a85bd0160e11b9b8c845233600485015260018060a01b038095166024850152604484015260806064840152608483019061134e565b0393165af190829082611a83575050611a7557611a4f6119b0565b5050505050600190565b6001600160a01b03909116815260806020820181905261156a9492611b76918301906113f4565b926040820152606081840391015261134e565b600090815260096020526040812080546001600160a01b031615801593929190611bed5760058101549260ff808560081c1694169260018301549060018201809211611bd9575060049092015490565b634e487b7160e01b81526011600452602490fd5b5080919250918180918190565b90815480825260208092019260005281600020916000905b828210611c20575050505090565b83546001600160a01b031685529384019360019384019390910190611c12565b60009181835260096020526040908184209260018060a01b03938481541680611cfc5750508452600a602052818420928354168015611cc55793600184016003611caf8551611c9a81611c938187611bfa565b0382611463565b96611c93600282015497518094819301611616565b9260019280925490848201809211611bd9575090565b825162461bcd60e51b815260206004820152601060248201526f155b9adb9bdddb8818dbdb9d1c9858dd60821b6044820152606490fd5b939450945050825193611d1d85611d168160018501611bfa565b0386611463565b6002810154935192611d3d84611d368160038601611616565b0385611463565b60046005830154920154909594939260ff808460081c1693169190565b15611d6157565b60405162461bcd60e51b8152602060048201526007602482015266109b1bd8dad95960ca1b6044820152606490fd5b818110611d9b575050565b60008155600101611d90565b90600160401b811161144d57815490808355818110611dc557505050565b611ddb9260005260206000209182019101611d90565b565b9190601f8111611dec57505050565b611ddb926000526020600020906020601f840160051c83019310611e18575b601f0160051c0190611d90565b9091508190611e0b565b8054821015611e3a5760005260206000200190600090565b634e487b7160e01b600052603260045260246000fd5b8054600160401b81101561144d57611e6d91600182018155611e22565b819291549060031b9160018060a01b039283811b93849216901b16911916179055565b91929015611ef25750815115611ea4575090565b3b15611ead5790565b60405162461bcd60e51b815260206004820152601d60248201527f416464726573733a2063616c6c20746f206e6f6e2d636f6e74726163740000006044820152606490fd5b825190915015611f055750805190602001fd5b60405162461bcd60e51b8152602060048201529081906117bf90602483019061134e565b80546001600160a01b0316825260806020830181905261156a9291600391611f5690840160018301611bfa565b9260028201546040820152606081850391015201611616565b6000908152600960205260409020546001600160a01b03908116159081611f94575090565b9050600a602052604060002054161590565b908160209103126113a457516001600160a01b03811681036113a45790565b6006546040805163181be00d60e01b815260036004820152926001600160a01b039290919060081c831660208086602481855afa958615612119576000966120ea575b5085156120e1575b8251636c3aa54d60e01b8082526002600483015290958287602481875afa9687156120d6576000976120b7575b5086161561204b5750505050565b83949550602482939451809581938252600060048301525afa9283156120ad5750600092612080575b50509038808080611643565b61209f9250803d106120a6575b6120978183611463565b810190611fa6565b3880612074565b503d61208d565b513d6000823e3d90fd5b6120cf919750833d85116120a6576120978183611463565b953861203d565b85513d6000823e3d90fd5b60019550612010565b90958682813d8311612112575b6121018183611463565b8101031261021d5750519438612008565b503d6120f7565b83513d6000823e3d90fd5b81811461218e5781549167ffffffffffffffff831161144d576121478383611da7565b60005260206000209060005260206000208154916000925b84841061216d575050505050565b600191820180546001600160a01b039092168486015593909101929061215f565b5050565b9080821461218e576121a481546115dc565b9067ffffffffffffffff821161144d5781906121ca826121c486546115dc565b86611ddd565b600090601f8311600114612201576000926121f6575b50508160011b916000199060031b1c1916179055565b0154905038806121e0565b81526020808220858352818320935090601f1985169083905b82821061225457505090846001959493921061223b575b505050811b019055565b015460001960f88460031b161c19169055388080612231565b849581929585015481556001809101960194019061221a565b6000908082526020600981526040918284206005810180549060ff8260081c1680156124e6575b6124dd5760018301918254600181018091116124c9576004850154106124bf5761ff001916610100179055828652600a8452848620828103612474575b5050805484516001600160a01b03929183166122ec82611431565b87825280156124325761035e849392866123b19361232861232283600052600260205260018060a01b0360406000205416151590565b156124f0565b61233760ff6006541615611d5a565b60008281526002602052604090205461235a906001600160a01b03161515612322565b808c5260038a528a8c2080546001019055818c5260028a528a8c2080546001600160a01b0319168217905581818d7fddf252ad1be2c89b69c2b068fc378daa952ba7f163c4a11628f55a4df523b3ef8180a46119e0565b5416935193827f94bfe4304c4a019a643db1361c608e44b3b0809910ddccf2c432f88b751dce9b8780a36008541691826123ed575b5050505050565b6344c86d2360e01b90840190815260248401919091523060448401528392839061241a816064810161057f565b51925af1506124276119b0565b5038808080806123e6565b60648688519062461bcd60e51b825280600483015260248201527f4552433732313a206d696e7420746f20746865207a65726f20616464726573736044820152fd5b825481546001600160a01b0319166001600160a01b03919091161781556124b8916124a29060018301612124565b6002830154600282015560038084019101612192565b38806122d1565b5050505050505050565b634e487b7160e01b89526011600452602489fd5b50505050505050565b5060ff8216612294565b156124f757565b60405162461bcd60e51b815260206004820152601c60248201527f4552433732313a20746f6b656e20616c7265616479206d696e746564000000006044820152606490fd5b600019811461254b5760010190565b634e487b7160e01b600052601160045260246000fd5b600090815260096020526040902080546001600160a01b0392831690831681146125d35760009260018093018054945b8581106125a357505050505050600090565b83836125af8385611e22565b90549060031b1c16146125ca576125c59061253c565b612591565b50505050905090565b505050600190565b60005260096020526004604060002001906000918054925b8381106126035750505050600090565b61260d8183611e22565b905460039190911b1c6001600160a01b0390811690841614611acb576126329061253c565b6125f356fea2646970667358221220193f9cef51b199aa7aab214af8c7b986a8978ad1b5de14079ca7c200b63f3a9464736f6c63430008110033a26469706673582212205be7cc284360d7320d3cd18bb8eda2acdbdcf28024a7c952cb64910c503eacde64736f6c63430008110033",
  "linkReferences": {},
  "deployedLinkReferences": {},
  "immutableReferences": {},
  "inputSourceName": "project/contracts/src/nft/ContractNftFactory.sol",
  "devdoc": {
    "details": "Standalone factory so ArbRwaNft stays under the EIP-170 24KB limit on L2.",
    "kind": "dev",
    "methods": {},
    "version": 1
  },
  "evm": {
    "gasEstimates": {
      "creation": {
        "codeDepositCost": "2227400",
        "executionCost": "2394",
        "totalCost": "2229794"
      },
      "external": {
        "deployContractNft(address,address,address)": "infinite"
      }
    }
  },
  "storageLayout": {
    "storage": [],
    "types": null
  },
  "userdoc": {
    "kind": "user",
    "methods": {},
    "version": 1
  },
  "argsData": "0x",
  "transaction": {
    "nonce": "0x1b",
    "hash": "0x19ae861a6b006845053b91547e01ee9515c08992a5de0f0c935d5b772341a630",
    "origin": "0xd41587f9d5df02662afa4ac60626154985e9149a"
  }
}