{
  "address": "0xcf4e9d4a44fe037a84ff9bfec3ac7a4e98593cd7",
  "abi": [
    {
      "inputs": [
        {
          "internalType": "address",
          "name": "owner_",
          "type": "address"
        }
      ],
      "stateMutability": "nonpayable",
      "type": "constructor"
    },
    {
      "anonymous": false,
      "inputs": [
        {
          "indexed": false,
          "internalType": "uint8",
          "name": "contractType",
          "type": "uint8"
        },
        {
          "indexed": false,
          "internalType": "address",
          "name": "oldAddress",
          "type": "address"
        },
        {
          "indexed": false,
          "internalType": "address",
          "name": "newAddress",
          "type": "address"
        }
      ],
      "name": "ContractUpdated",
      "type": "event"
    },
    {
      "anonymous": false,
      "inputs": [
        {
          "indexed": false,
          "internalType": "uint8",
          "name": "implementationType",
          "type": "uint8"
        },
        {
          "indexed": false,
          "internalType": "address",
          "name": "oldAddress",
          "type": "address"
        },
        {
          "indexed": false,
          "internalType": "address",
          "name": "newAddress",
          "type": "address"
        }
      ],
      "name": "ImplementationUpdated",
      "type": "event"
    },
    {
      "anonymous": false,
      "inputs": [
        {
          "indexed": true,
          "internalType": "address",
          "name": "previousOwner",
          "type": "address"
        },
        {
          "indexed": true,
          "internalType": "address",
          "name": "newOwner",
          "type": "address"
        }
      ],
      "name": "OwnershipTransferred",
      "type": "event"
    },
    {
      "anonymous": false,
      "inputs": [
        {
          "indexed": false,
          "internalType": "uint8",
          "name": "precompileType",
          "type": "uint8"
        },
        {
          "indexed": false,
          "internalType": "address",
          "name": "oldAddress",
          "type": "address"
        },
        {
          "indexed": false,
          "internalType": "address",
          "name": "newAddress",
          "type": "address"
        }
      ],
      "name": "PrecompileUpdated",
      "type": "event"
    },
    {
      "inputs": [
        {
          "internalType": "address",
          "name": "owner_",
          "type": "address"
        }
      ],
      "name": "InfoDesk_init",
      "outputs": [],
      "stateMutability": "nonpayable",
      "type": "function"
    },
    {
      "inputs": [
        {
          "internalType": "uint256",
          "name": "machineValue",
          "type": "uint256"
        }
      ],
      "name": "computeMachineRegistrationFee",
      "outputs": [
        {
          "internalType": "uint256",
          "name": "",
          "type": "uint256"
        }
      ],
      "stateMutability": "view",
      "type": "function"
    },
    {
      "inputs": [
        {
          "internalType": "uint256",
          "name": "amount",
          "type": "uint256"
        }
      ],
      "name": "computeTransactionFee",
      "outputs": [
        {
          "internalType": "uint256",
          "name": "",
          "type": "uint256"
        }
      ],
      "stateMutability": "view",
      "type": "function"
    },
    {
      "inputs": [
        {
          "internalType": "uint8",
          "name": "accountType",
          "type": "uint8"
        }
      ],
      "name": "getAccount",
      "outputs": [
        {
          "internalType": "address",
          "name": "",
          "type": "address"
        }
      ],
      "stateMutability": "view",
      "type": "function"
    },
    {
      "inputs": [
        {
          "internalType": "uint8",
          "name": "contractType",
          "type": "uint8"
        }
      ],
      "name": "getContract",
      "outputs": [
        {
          "internalType": "address",
          "name": "",
          "type": "address"
        }
      ],
      "stateMutability": "view",
      "type": "function"
    },
    {
      "inputs": [
        {
          "internalType": "uint8",
          "name": "implementationType",
          "type": "uint8"
        }
      ],
      "name": "getImplementation",
      "outputs": [
        {
          "internalType": "address",
          "name": "",
          "type": "address"
        }
      ],
      "stateMutability": "view",
      "type": "function"
    },
    {
      "inputs": [
        {
          "internalType": "uint8",
          "name": "precompileType",
          "type": "uint8"
        }
      ],
      "name": "getPrecompile",
      "outputs": [
        {
          "internalType": "address",
          "name": "",
          "type": "address"
        }
      ],
      "stateMutability": "view",
      "type": "function"
    },
    {
      "inputs": [
        {
          "internalType": "uint8",
          "name": "valueType",
          "type": "uint8"
        }
      ],
      "name": "getValue",
      "outputs": [
        {
          "internalType": "uint256",
          "name": "",
          "type": "uint256"
        }
      ],
      "stateMutability": "view",
      "type": "function"
    },
    {
      "inputs": [],
      "name": "owner",
      "outputs": [
        {
          "internalType": "address",
          "name": "",
          "type": "address"
        }
      ],
      "stateMutability": "view",
      "type": "function"
    },
    {
      "inputs": [],
      "name": "renounceOwnership",
      "outputs": [],
      "stateMutability": "nonpayable",
      "type": "function"
    },
    {
      "inputs": [],
      "name": "resetToDefaults",
      "outputs": [],
      "stateMutability": "nonpayable",
      "type": "function"
    },
    {
      "inputs": [
        {
          "internalType": "uint8",
          "name": "accountType",
          "type": "uint8"
        },
        {
          "internalType": "address",
          "name": "newAccount",
          "type": "address"
        }
      ],
      "name": "setAccount",
      "outputs": [],
      "stateMutability": "nonpayable",
      "type": "function"
    },
    {
      "inputs": [
        {
          "internalType": "uint8",
          "name": "contractType",
          "type": "uint8"
        },
        {
          "internalType": "address",
          "name": "newAddress",
          "type": "address"
        }
      ],
      "name": "setContract",
      "outputs": [],
      "stateMutability": "nonpayable",
      "type": "function"
    },
    {
      "inputs": [
        {
          "internalType": "uint8",
          "name": "implementationType",
          "type": "uint8"
        },
        {
          "internalType": "address",
          "name": "newImplementation",
          "type": "address"
        }
      ],
      "name": "setImplementation",
      "outputs": [],
      "stateMutability": "nonpayable",
      "type": "function"
    },
    {
      "inputs": [
        {
          "internalType": "uint8",
          "name": "precompileType",
          "type": "uint8"
        },
        {
          "internalType": "address",
          "name": "newAddress",
          "type": "address"
        }
      ],
      "name": "setPrecompile",
      "outputs": [],
      "stateMutability": "nonpayable",
      "type": "function"
    },
    {
      "inputs": [
        {
          "internalType": "uint8",
          "name": "valueType",
          "type": "uint8"
        },
        {
          "internalType": "uint256",
          "name": "newValue",
          "type": "uint256"
        }
      ],
      "name": "setValue",
      "outputs": [],
      "stateMutability": "nonpayable",
      "type": "function"
    },
    {
      "inputs": [
        {
          "internalType": "address",
          "name": "newOwner",
          "type": "address"
        }
      ],
      "name": "transferOwnership",
      "outputs": [],
      "stateMutability": "nonpayable",
      "type": "function"
    }
  ],
  "contractName": "InfoDesk",
  "sourceName": "contracts/src/core/InfoDesk.sol",
  "bytecode": "0x6080346100a057601f61090038819003918201601f191683019291906001600160401b038411838510176100a55781602092849260409687528339810103126100a057516001600160a01b03811681036100a05761006590610060336100bb565b6100bb565b60008080526005602052612710828220556001815260648282205560028152610500828220556004815281812055516107fd90816101038239f35b600080fd5b634e487b7160e01b600052604160045260246000fd5b600080546001600160a01b039283166001600160a01b03198216811783559216907f8be0079c531659141344cd1fd0a4f28419497f9722a3daafe3b4186f6b6457e09080a356fe608060408181526004908136101561001657600080fd5b600092833560e01c908163181be00d14610690575080631cac57621461065a57806345583b7a146105b457806349f08b5f1461058657806363157e461461054f57806367f4bd91146104f75780636c3aa54d146104bb578063715018a61461045e578063865e6fd3146103b85780638da5cb5b14610390578063a1e402951461031a578063a7616419146102de57838163aec71c531461029357508063afbc92e914610258578063de981f1b14610218578063f2fde38b146101865763fb7350e9146100e157600080fd5b346101825780600319360112610182576100f96106be565b906101026106d3565b9261010b6106ff565b60ff9290921680855260208381528286205483518381526001600160a01b039182169281019290925285811660408301529391907f07cb9126f6e11b8d05af2071c4fd3264671ce4fcb135ca32861214c384f10ae090606090a18552602052832091166001600160601b0360a01b82541617905580f35b8280fd5b509034610182576020366003190112610182576101a16106e9565b916101aa6106ff565b6001600160a01b038316156101c657836101c384610757565b80f35b906020608492519162461bcd60e51b8352820152602660248201527f4f776e61626c653a206e6577206f776e657220697320746865207a65726f206160448201526564647265737360d01b6064820152fd5b8382346102545760203660031901126102545760209160ff6102386106be565b168152600283528190205490516001600160a01b039091168152f35b5080fd5b509034610182576020366003190112610182579160209260ff6102796106be565b16825283528190205490516001600160a01b039091168152f35b929050346102da57826003193601126102da576102ae6106ff565b828052600560205261271082842055600183526064828420556002835261050082842055825281205580f35b5050fd5b8382346102545760203660031901126102545760209160ff6102fe6106be565b168152600183528190205490516001600160a01b039091168152f35b50919034610254576020366003190112610254576103366106e9565b906006549060ff8216610357575060ff19166001176006556101c390610757565b606490602086519162461bcd60e51b83528201526013602482015272105b1c9958591e481a5b9a5d1a585b1a5e9959606a1b6044820152fd5b838234610254578160031936011261025457905490516001600160a01b039091168152602090f35b8382346102545780600319360112610254576103d26106be565b6103da6106d3565b916103e36106ff565b60ff91909116808452600260209081528285205483518381526001600160a01b039182169281019290925284811660408301529291907fca72e4cbbf73f106c1f1ac835ad882bb0a15981080bd1be51077c63d729c940790606090a184526002602052832091166001600160601b0360a01b82541617905580f35b83346104b857806003193601126104b8576104776106ff565b80546001600160a01b03198116825581906001600160a01b03167f8be0079c531659141344cd1fd0a4f28419497f9722a3daafe3b4186f6b6457e08280a380f35b80fd5b8382346102545760203660031901126102545760209160ff6104db6106be565b168152600383528190205490516001600160a01b039091168152f35b8382346102545780600319360112610254576105116106be565b9060ff61051c6106d3565b926105256106ff565b1683526003602052822080546001600160a01b0319166001600160a01b0390921691909117905580f35b5090346101825760203660031901126101825761057e612710918385600160209752600587522054903561079e565b049051908152f35b5090346101825760203660031901126101825761057e6127109183858060209752600587522054903561079e565b8382346102545780600319360112610254576105ce6106be565b6105d66106d3565b916105df6106ff565b60ff91909116808452600160209081528285205483518381526001600160a01b039182169281019290925284811660408301529291907fee98ab479506a480f6aaf2f74e304414ff825cb97856ec07c9c0da0cb97b439290606090a184526001602052832091166001600160601b0360a01b82541617905580f35b83823461025457806003193601126102545760ff6106766106be565b61067e6106ff565b16825260056020526024359082205580f35b925050346101825760203660031901126101825760209260ff6106b16106be565b1681526005845220548152f35b6004359060ff821682036106ce57565b600080fd5b602435906001600160a01b03821682036106ce57565b600435906001600160a01b03821682036106ce57565b6000546001600160a01b0316330361071357565b606460405162461bcd60e51b815260206004820152602060248201527f4f776e61626c653a2063616c6c6572206973206e6f7420746865206f776e65726044820152fd5b600080546001600160a01b039283166001600160a01b03198216811783559216907f8be0079c531659141344cd1fd0a4f28419497f9722a3daafe3b4186f6b6457e09080a3565b818102929181159184041417156107b157565b634e487b7160e01b600052601160045260246000fdfea26469706673582212206b3313381b4596cacd28df0bc63efaf8efc303174f8bc0f9f37ce39268b25ce564736f6c63430008110033",
  "linkReferences": {},
  "deployedLinkReferences": {},
  "immutableReferences": {},
  "inputSourceName": "project/contracts/src/core/InfoDesk.sol",
  "devdoc": {
    "kind": "dev",
    "methods": {
      "owner()": {
        "details": "Returns the address of the current owner."
      },
      "renounceOwnership()": {
        "details": "Leaves the contract without owner. It will not be possible to call `onlyOwner` functions. Can only be called by the current owner. NOTE: Renouncing ownership will leave the contract without an owner, thereby disabling any functionality that is only available to the owner."
      },
      "transferOwnership(address)": {
        "details": "Transfers ownership of the contract to a new account (`newOwner`). Can only be called by the current owner."
      }
    },
    "title": "InfoDesk — central configuration registry for fees, implementations, and treasury accounts",
    "version": 1
  },
  "evm": {
    "gasEstimates": {
      "creation": {
        "codeDepositCost": "409000",
        "executionCost": "infinite",
        "totalCost": "infinite"
      },
      "external": {
        "InfoDesk_init(address)": "50509",
        "computeMachineRegistrationFee(uint256)": "2504",
        "computeTransactionFee(uint256)": "2526",
        "getAccount(uint8)": "2562",
        "getContract(uint8)": "2743",
        "getImplementation(uint8)": "2672",
        "getPrecompile(uint8)": "2720",
        "getValue(uint8)": "2393",
        "owner()": "2501",
        "renounceOwnership()": "28232",
        "resetToDefaults()": "74127",
        "setAccount(uint8,address)": "26897",
        "setContract(uint8,address)": "30749",
        "setImplementation(uint8,address)": "30617",
        "setPrecompile(uint8,address)": "30918",
        "setValue(uint8,uint256)": "24576",
        "transferOwnership(address)": "28576"
      }
    }
  },
  "storageLayout": {
    "storage": [
      {
        "astId": 3468,
        "contract": "project/contracts/src/core/InfoDesk.sol:InfoDesk",
        "label": "_owner",
        "offset": 0,
        "slot": "0",
        "type": "t_address"
      },
      {
        "astId": 8288,
        "contract": "project/contracts/src/core/InfoDesk.sol:InfoDesk",
        "label": "_implementations",
        "offset": 0,
        "slot": "1",
        "type": "t_mapping(t_uint8,t_address)"
      },
      {
        "astId": 8292,
        "contract": "project/contracts/src/core/InfoDesk.sol:InfoDesk",
        "label": "_contracts",
        "offset": 0,
        "slot": "2",
        "type": "t_mapping(t_uint8,t_address)"
      },
      {
        "astId": 8296,
        "contract": "project/contracts/src/core/InfoDesk.sol:InfoDesk",
        "label": "_accounts",
        "offset": 0,
        "slot": "3",
        "type": "t_mapping(t_uint8,t_address)"
      },
      {
        "astId": 8300,
        "contract": "project/contracts/src/core/InfoDesk.sol:InfoDesk",
        "label": "_precompiles",
        "offset": 0,
        "slot": "4",
        "type": "t_mapping(t_uint8,t_address)"
      },
      {
        "astId": 8304,
        "contract": "project/contracts/src/core/InfoDesk.sol:InfoDesk",
        "label": "_values",
        "offset": 0,
        "slot": "5",
        "type": "t_mapping(t_uint8,t_uint256)"
      },
      {
        "astId": 8306,
        "contract": "project/contracts/src/core/InfoDesk.sol:InfoDesk",
        "label": "_initialized",
        "offset": 0,
        "slot": "6",
        "type": "t_bool"
      }
    ],
    "types": {
      "t_address": {
        "encoding": "inplace",
        "label": "address",
        "numberOfBytes": "20"
      },
      "t_bool": {
        "encoding": "inplace",
        "label": "bool",
        "numberOfBytes": "1"
      },
      "t_mapping(t_uint8,t_address)": {
        "encoding": "mapping",
        "key": "t_uint8",
        "label": "mapping(uint8 => address)",
        "numberOfBytes": "32",
        "value": "t_address"
      },
      "t_mapping(t_uint8,t_uint256)": {
        "encoding": "mapping",
        "key": "t_uint8",
        "label": "mapping(uint8 => uint256)",
        "numberOfBytes": "32",
        "value": "t_uint256"
      },
      "t_uint256": {
        "encoding": "inplace",
        "label": "uint256",
        "numberOfBytes": "32"
      },
      "t_uint8": {
        "encoding": "inplace",
        "label": "uint8",
        "numberOfBytes": "1"
      }
    }
  },
  "userdoc": {
    "kind": "user",
    "methods": {},
    "notice": "Chain-agnostic config hub (Arbitrum, peaq, etc.); fee token is any ERC-20 (e.g. USDC on Arbitrum)",
    "version": 1
  },
  "argsData": "0x000000000000000000000000d41587f9d5df02662afa4ac60626154985e9149a",
  "transaction": {
    "nonce": "0x4",
    "hash": "0xade2ae1314bfba75de8e472f6345b9e4a09abd03a625d65a285dd3c5b56b88a1",
    "origin": "0xd41587f9d5df02662afa4ac60626154985e9149a"
  }
}