{
  "address": "0x99df0787a305625e0110b258fd2e8c213de342d7",
  "abi": [
    {
      "inputs": [
        {
          "internalType": "address",
          "name": "owner_",
          "type": "address"
        },
        {
          "internalType": "address",
          "name": "infoDesk_",
          "type": "address"
        },
        {
          "internalType": "address",
          "name": "feeToken_",
          "type": "address"
        },
        {
          "internalType": "address",
          "name": "identityFactory_",
          "type": "address"
        },
        {
          "internalType": "address",
          "name": "claimIssuer_",
          "type": "address"
        },
        {
          "internalType": "address",
          "name": "machineNftFactory_",
          "type": "address"
        },
        {
          "internalType": "address",
          "name": "contractNftFactory_",
          "type": "address"
        }
      ],
      "stateMutability": "nonpayable",
      "type": "constructor"
    },
    {
      "anonymous": false,
      "inputs": [
        {
          "indexed": true,
          "internalType": "address",
          "name": "contractNft",
          "type": "address"
        }
      ],
      "name": "ContractNftAdded",
      "type": "event"
    },
    {
      "anonymous": false,
      "inputs": [
        {
          "indexed": true,
          "internalType": "address",
          "name": "issuer",
          "type": "address"
        },
        {
          "indexed": true,
          "internalType": "address",
          "name": "machineNft",
          "type": "address"
        }
      ],
      "name": "MachineIssuerAdded",
      "type": "event"
    },
    {
      "anonymous": false,
      "inputs": [
        {
          "indexed": true,
          "internalType": "address",
          "name": "regulator",
          "type": "address"
        },
        {
          "indexed": true,
          "internalType": "address",
          "name": "issuer",
          "type": "address"
        }
      ],
      "name": "MachineIssuerRemoved",
      "type": "event"
    },
    {
      "anonymous": false,
      "inputs": [
        {
          "indexed": true,
          "internalType": "address",
          "name": "issuer",
          "type": "address"
        },
        {
          "indexed": true,
          "internalType": "address",
          "name": "machineNft",
          "type": "address"
        }
      ],
      "name": "MachineNftDeployed",
      "type": "event"
    },
    {
      "anonymous": false,
      "inputs": [
        {
          "indexed": true,
          "internalType": "address",
          "name": "regulator",
          "type": "address"
        }
      ],
      "name": "MachineRegulatorAdded",
      "type": "event"
    },
    {
      "anonymous": false,
      "inputs": [
        {
          "indexed": true,
          "internalType": "address",
          "name": "regulator",
          "type": "address"
        }
      ],
      "name": "MachineRegulatorRemoved",
      "type": "event"
    },
    {
      "anonymous": false,
      "inputs": [
        {
          "indexed": true,
          "internalType": "address",
          "name": "previousOwner",
          "type": "address"
        },
        {
          "indexed": true,
          "internalType": "address",
          "name": "newOwner",
          "type": "address"
        }
      ],
      "name": "OwnershipTransferred",
      "type": "event"
    },
    {
      "inputs": [],
      "name": "addContractNft",
      "outputs": [],
      "stateMutability": "nonpayable",
      "type": "function"
    },
    {
      "inputs": [
        {
          "internalType": "address",
          "name": "issuer",
          "type": "address"
        }
      ],
      "name": "addMachineIssuer",
      "outputs": [],
      "stateMutability": "nonpayable",
      "type": "function"
    },
    {
      "inputs": [
        {
          "internalType": "address",
          "name": "regulator",
          "type": "address"
        }
      ],
      "name": "addMachineRegulator",
      "outputs": [],
      "stateMutability": "nonpayable",
      "type": "function"
    },
    {
      "inputs": [],
      "name": "claimIssuer",
      "outputs": [
        {
          "internalType": "address",
          "name": "",
          "type": "address"
        }
      ],
      "stateMutability": "view",
      "type": "function"
    },
    {
      "inputs": [],
      "name": "contractNftFactory",
      "outputs": [
        {
          "internalType": "address",
          "name": "",
          "type": "address"
        }
      ],
      "stateMutability": "view",
      "type": "function"
    },
    {
      "inputs": [],
      "name": "deployContractNft",
      "outputs": [
        {
          "internalType": "address",
          "name": "",
          "type": "address"
        }
      ],
      "stateMutability": "nonpayable",
      "type": "function"
    },
    {
      "inputs": [],
      "name": "feeToken",
      "outputs": [
        {
          "internalType": "address",
          "name": "",
          "type": "address"
        }
      ],
      "stateMutability": "view",
      "type": "function"
    },
    {
      "inputs": [
        {
          "internalType": "uint256",
          "name": "",
          "type": "uint256"
        }
      ],
      "name": "findContractNft",
      "outputs": [
        {
          "internalType": "address",
          "name": "",
          "type": "address"
        }
      ],
      "stateMutability": "view",
      "type": "function"
    },
    {
      "inputs": [],
      "name": "getMachineIssuers",
      "outputs": [
        {
          "internalType": "address[]",
          "name": "",
          "type": "address[]"
        }
      ],
      "stateMutability": "view",
      "type": "function"
    },
    {
      "inputs": [
        {
          "internalType": "address",
          "name": "issuer",
          "type": "address"
        }
      ],
      "name": "getMachineNftByIssuer",
      "outputs": [
        {
          "internalType": "address",
          "name": "",
          "type": "address"
        }
      ],
      "stateMutability": "view",
      "type": "function"
    },
    {
      "inputs": [],
      "name": "getMachineRegulators",
      "outputs": [
        {
          "internalType": "address[]",
          "name": "",
          "type": "address[]"
        }
      ],
      "stateMutability": "view",
      "type": "function"
    },
    {
      "inputs": [],
      "name": "identityFactory",
      "outputs": [
        {
          "internalType": "address",
          "name": "",
          "type": "address"
        }
      ],
      "stateMutability": "view",
      "type": "function"
    },
    {
      "inputs": [],
      "name": "infoDesk",
      "outputs": [
        {
          "internalType": "address",
          "name": "",
          "type": "address"
        }
      ],
      "stateMutability": "view",
      "type": "function"
    },
    {
      "inputs": [
        {
          "internalType": "address",
          "name": "addr",
          "type": "address"
        }
      ],
      "name": "isContractNft",
      "outputs": [
        {
          "internalType": "bool",
          "name": "",
          "type": "bool"
        }
      ],
      "stateMutability": "view",
      "type": "function"
    },
    {
      "inputs": [
        {
          "internalType": "address",
          "name": "addr",
          "type": "address"
        }
      ],
      "name": "isMachineNft",
      "outputs": [
        {
          "internalType": "bool",
          "name": "",
          "type": "bool"
        }
      ],
      "stateMutability": "view",
      "type": "function"
    },
    {
      "inputs": [
        {
          "internalType": "address",
          "name": "addr",
          "type": "address"
        }
      ],
      "name": "isRwaNft",
      "outputs": [
        {
          "internalType": "bool",
          "name": "",
          "type": "bool"
        }
      ],
      "stateMutability": "view",
      "type": "function"
    },
    {
      "inputs": [],
      "name": "machineNftFactory",
      "outputs": [
        {
          "internalType": "address",
          "name": "",
          "type": "address"
        }
      ],
      "stateMutability": "view",
      "type": "function"
    },
    {
      "inputs": [],
      "name": "owner",
      "outputs": [
        {
          "internalType": "address",
          "name": "",
          "type": "address"
        }
      ],
      "stateMutability": "view",
      "type": "function"
    },
    {
      "inputs": [
        {
          "internalType": "uint256",
          "name": "contractId",
          "type": "uint256"
        },
        {
          "internalType": "address",
          "name": "contractNft",
          "type": "address"
        }
      ],
      "name": "registerContractId",
      "outputs": [],
      "stateMutability": "nonpayable",
      "type": "function"
    },
    {
      "inputs": [
        {
          "internalType": "address",
          "name": "issuer",
          "type": "address"
        }
      ],
      "name": "removeMachineIssuer",
      "outputs": [],
      "stateMutability": "nonpayable",
      "type": "function"
    },
    {
      "inputs": [
        {
          "internalType": "address",
          "name": "regulator",
          "type": "address"
        }
      ],
      "name": "removeMachineRegulator",
      "outputs": [],
      "stateMutability": "nonpayable",
      "type": "function"
    },
    {
      "inputs": [],
      "name": "renounceOwnership",
      "outputs": [],
      "stateMutability": "nonpayable",
      "type": "function"
    },
    {
      "inputs": [
        {
          "internalType": "address",
          "name": "issuerOrContractNft",
          "type": "address"
        },
        {
          "internalType": "bool",
          "name": "blocked",
          "type": "bool"
        }
      ],
      "name": "setMachineNftBlockState",
      "outputs": [],
      "stateMutability": "nonpayable",
      "type": "function"
    },
    {
      "inputs": [
        {
          "internalType": "address",
          "name": "newOwner",
          "type": "address"
        }
      ],
      "name": "transferOwnership",
      "outputs": [],
      "stateMutability": "nonpayable",
      "type": "function"
    }
  ],
  "contractName": "ArbRwaNft",
  "sourceName": "contracts/src/nft/ArbRwaNft.sol",
  "bytecode": "0x6080346200012057601f62001d6738819003918201601f19168301916001600160401b03831184841017620001255780849260e09460405283398101031262000120576200004d816200013b565b906200005c602082016200013b565b916200006b604083016200013b565b916200007a606082016200013b565b9062000089608082016200013b565b93620000bc620000aa60c0620000a260a086016200013b565b94016200013b565b94620000b63362000150565b62000150565b60018060a01b03948580948180948160018060a01b03199b168b60015416176001551689600254161760025516876003541617600355168560045416176004551683600554161760055516906006541617600655604051611bcf9081620001988239f35b600080fd5b634e487b7160e01b600052604160045260246000fd5b51906001600160a01b03821682036200012057565b600080546001600160a01b039283166001600160a01b03198216811783559216907f8be0079c531659141344cd1fd0a4f28419497f9722a3daafe3b4186f6b6457e09080a356fe6080604081815260048036101561001557600080fd5b600092833560e01c9081630c6f78a914610f8e5750806313c8bcba14610eb75780631fc6d9a314610e345780632182a0ae14610df957806344c86d2314610d6e57806347cb2ea614610c585780634a8faa7814610c1a578063647846a514610bf1578063715018a614610b9757806371b6b1bb146108565780637945960c146108185780637adb5650146107e657806387447258146106955780638da5cb5b1461066d5780639c669fb314610644578063a66250af146105eb578063aaf8603b146104dd578063bb5706eb14610449578063c06b656814610420578063d2f1bc0e146103a0578063d4b70cfa14610377578063d6edef0b14610222578063e5f0c352146101f55763f2fde38b1461012b57600080fd5b346101f15760203660031901126101f157610144610fb3565b9061014d611012565b6001600160a01b0391821692831561019f575050600054826001600160601b0360a01b821617600055167f8be0079c531659141344cd1fd0a4f28419497f9722a3daafe3b4186f6b6457e0600080a380f35b906020608492519162461bcd60e51b8352820152602660248201527f4f776e61626c653a206e6577206f776e657220697320746865207a65726f206160448201526564647265737360d01b6064820152fd5b8280fd5b50503461021e578160031936011261021e5760035490516001600160a01b039091168152602090f35b5080fd5b50346101f15760203660031901126101f15761023c610fb3565b610244611012565b61024d816115db565b15610334576001600160a01b0316808452600a602052828420549092906102779060ff161561106a565b828452600a6020528320805460ff1916600117905560085490600160401b82101561031f57600182018060085582101561030a575060086000527ff3f7a9fe364faab93b216da50a3214154f22a0a2b415b23a84c8169e8b636ee30180546001600160a01b031916821790557f45faf4fe47d79afab55175ca08fe074f445635780cb38e7a3a6b43060c2fe75a8280a280f35b603290634e487b7160e01b6000525260246000fd5b604190634e487b7160e01b6000525260246000fd5b506020606492519162461bcd60e51b8352820152601760248201527f4d697373696e6720726567756c61746f7220636c61696d0000000000000000006044820152fd5b50503461021e578160031936011261021e5760055490516001600160a01b039091168152602090f35b50503461021e57602036600319011261021e576103bb610fb3565b6103c3611012565b6001600160a01b0316808352600a602052818320549091906103e79060ff1661109f565b818352600a6020528220805460ff191690557f19d3bc0d193b2c6a0eac5072974fb4830e34b10ad033bb7231efa0c39edff4d38280a280f35b50503461021e578160031936011261021e5760015490516001600160a01b039091168152602090f35b8284346104da57806003193601126104da578151918291600854808552602080950194600883527ff3f7a9fe364faab93b216da50a3214154f22a0a2b415b23a84c8169e8b636ee392905b8282106104ba576104b686866104ac828b0383611144565b5191829182610fce565b0390f35b83546001600160a01b031687529586019560019384019390910190610494565b80fd5b50346101f157826003193601126101f157600654600154600254845163c595e41d60e01b81526001600160a01b03928316948101948552908216602085810191909152306040860152909391929091849184169082908890829060600103925af19182156105de57849261059d575b50600190338552600c6020528385209260ff1993838582541617905516928385528420918254161790557fbf27773a071243097e9f5acc7281880b42f740f24260275ae731ef4db2a30f428280a280f35b9091506020813d82116105d6575b816105b860209383611144565b810103126105d2576105cb600191611166565b919061054c565b8380fd5b3d91506105ab565b50505051903d90823e3d90fd5b50503461021e57602036600319011261021e57602091906001600160a01b03610612610fb3565b168252600c835260ff8183205416918215610631575b50519015158152f35b600d84528190205460ff16915038610628565b50503461021e578160031936011261021e5760065490516001600160a01b039091168152602090f35b50503461021e578160031936011261021e57905490516001600160a01b039091168152602090f35b5082903461021e578260031936011261021e576106b0610fb3565b92602435938415158095036105d257338452600a60205260ff828520541680156107d3575b6106de9061109f565b60018060a01b031691828452600f60205281842060ff1981541660ff8716179055600d60205260ff8285205416610780575b8394838552600c60205260ff8386205416610729578480f35b833b1561077c57602485928385519687948593632267eec960e01b85528401525af1908115610773575061075f575b8080808480f35b610768906110fe565b6104da578082610758565b513d84823e3d90fd5b8480fd5b823b156105d2578151632267eec960e01b815281810186905294848660248183885af180156107c9576107b5575b9450610710565b9390946107c1906110fe565b9284906107ae565b83513d87823e3d90fd5b5083546001600160a01b031633146106d5565b50346101f15760203660031901126101f157358252600e6020908152918190205490516001600160a01b039091168152f35b50503461021e57602036600319011261021e5760209160ff9082906001600160a01b03610843610fb3565b168152600d855220541690519015158152f35b5090346101f15760209160031991838336011261077c57610875610fb3565b93338652600a815260ff82872054168015610b84575b6108949061109f565b60018060a01b039485811694858852600983526108b760ff858a2054161561106a565b6108c082611234565b15610b4a576109c991839161092b60276108e16108db61190a565b94611a26565b93885194816108f987935180928a80870191016110db565b82016634b9b9bab2b91d60c91b8882015261091c825180938a87850191016110db565b01036007810185520183611144565b60a08a888b61093861190a565b610995602a61094633611a26565b928d51938161095f8d87945192818492870191016110db565b8201693932b3bab630ba37b91d60b11b8d8201526109868d835193849187850191016110db565b0103600a810184520182611144565b6109d882600554169683600154169360025416928d519b8c9a8b998a98631c4e4fb560e21b8a5289015260a488019061117a565b9186830301602487015261117a565b918d60448501526064840152608483015203925af1908115610b40578791610b07575b50848752600982528287209360ff199460018682541617905560075490600160401b821015610af4576001820180600755821015610ae1575091600d91600194937fa66cc928b5edb82af9bd49922954155ab7b0942694bea4ce44661d9a8736c68801976001600160601b0360a01b98888a825416179055878a52600b8352848a20911680988254161790558688525285209182541617905581817ff4d53f2ae97e417a1051e78e12d97f069c0205ca6af0d1e2ed31e9c82fa242608580a37fa26fdd8dba2f31f820d5d9a66d2c18c9a1a05b4272f5e293fe6d87b7bc98900f8380a380f35b634e487b7160e01b895260329052602488fd5b634e487b7160e01b895260419052602488fd5b90508181813d8311610b39575b610b1e8183611144565b81010312610b3557610b2f90611166565b386109fb565b8680fd5b503d610b14565b83513d89823e3d90fd5b835162461bcd60e51b815280860184905260146024820152734d697373696e672069737375657220636c61696d60601b6044820152606490fd5b5085546001600160a01b0316331461088b565b83346104da57806003193601126104da57610bb0611012565b80546001600160a01b03198116825581906001600160a01b03167f8be0079c531659141344cd1fd0a4f28419497f9722a3daafe3b4186f6b6457e08280a380f35b50503461021e578160031936011261021e5760025490516001600160a01b039091168152602090f35b50503461021e57602036600319011261021e5760209160ff9082906001600160a01b03610c45610fb3565b168152600c855220541690519015158152f35b5091903461021e578160031936011261021e57600654600154600254835163c595e41d60e01b81526001600160a01b03928316968101968752908216602087810191909152306040880152959093928691859184169082908890829060600103925af18015610d64578490610d0c575b7fbf27773a071243097e9f5acc7281880b42f740f24260275ae731ef4db2a30f42935016918291828552600c8652808520600160ff19825416179055519380a28152f35b5090918481813d8311610d5d575b610d248183611144565b810103126105d25790610d587fbf27773a071243097e9f5acc7281880b42f740f24260275ae731ef4db2a30f429392611166565b610cc8565b503d610d1a565b82513d86823e3d90fd5b5090346101f157806003193601126101f1576024356001600160a01b03811692908390036105d257828452600c60205260ff828520541615610dc857358352600e602052822080546001600160a01b031916909117905580f35b6020606492519162461bcd60e51b8352820152600c60248201526b155b9adb9bdddb8810d3919560a21b6044820152fd5b50503461021e57602036600319011261021e576020916001600160a01b0390829082610e23610fb3565b168152600b85522054169051908152f35b8284346104da57806003193601126104da578151918291600754808552602080950194600783527fa66cc928b5edb82af9bd49922954155ab7b0942694bea4ce44661d9a8736c68892905b828210610e97576104b686866104ac828b0383611144565b83546001600160a01b031687529586019560019384019390910190610e7f565b5090346101f15760203660031901126101f157610ed2610fb3565b338452600a60205260ff82852054168015610f7b575b610ef19061109f565b6001600160a01b031680845260096020528184205490929060ff1615610f4c575081835260096020528220805460ff19169055337f2d1d9e933aedeefc807aee93e848d9421b00742b7e57a92778ba3cb4c7227da48380a380f35b6020606492519162461bcd60e51b8352820152600a6024820152692737ba1034b9b9bab2b960b11b6044820152fd5b5083546001600160a01b03163314610ee8565b925050346101f157826003193601126101f157546001600160a01b0316815260209150f35b600435906001600160a01b0382168203610fc957565b600080fd5b6020908160408183019282815285518094520193019160005b828110610ff5575050505090565b83516001600160a01b031685529381019392810192600101610fe7565b6000546001600160a01b0316330361102657565b606460405162461bcd60e51b815260206004820152602060248201527f4f776e61626c653a2063616c6c6572206973206e6f7420746865206f776e65726044820152fd5b1561107157565b60405162461bcd60e51b815260206004820152600660248201526545786973747360d01b6044820152606490fd5b156110a657565b60405162461bcd60e51b815260206004820152600d60248201526c2737ba103932b3bab630ba37b960991b6044820152606490fd5b60005b8381106110ee5750506000910152565b81810151838201526020016110de565b67ffffffffffffffff811161111257604052565b634e487b7160e01b600052604160045260246000fd5b6040810190811067ffffffffffffffff82111761111257604052565b90601f8019910116810190811067ffffffffffffffff82111761111257604052565b51906001600160a01b0382168203610fc957565b90602091611193815180928185528580860191016110db565b601f01601f1916010190565b60001981146111ae5760010190565b634e487b7160e01b600052601160045260246000fd5b67ffffffffffffffff811161111257601f01601f191660200190565b909291926111ed816111c4565b916111fb6040519384611144565b829482845282820111610fc95760206112159301906110db565b565b9080601f83011215610fc9578151611231926020016111e0565b90565b60035460408051632fea7b8160e01b81526001600160a01b039384166004808301919091529392602491602091829082908590829089165afa9081156115d057908591600091611599575b501691821561158e5783516380e9e9e160e01b81526007878201819052936000828481845afa918215611583576000926114de575b50875491979187169160005b89518110156114cf57858160051b8b01015188519063c9100bcb60e01b8252838201526000818781875afa9081156114c45787878b87878f968e96600098898080938195611403575b508a036113ef576001809b036113ef5716948d86036113dc5761136692916113549151998a988997889763604b4d3760e11b895288015286015260806044860152608485019061117a565b8381036003190160648501529061117a565b03915afa9081156113d15760009161139b575b5061138d57506113889061119f565b6112c0565b995050505050505050505090565b8881813d83116113ca575b6113b08183611144565b8101031261021e57519081151582036104da575038611379565b503d6113a6565b8a513d6000823e3d90fd5b505050505050505050506113889061119f565b50505050505050505050506113889061119f565b9b5099505050505050505050503d8082843e61141f8184611144565b82019160c08184031261021e57805191898201519261143f8d8401611166565b9460608401519267ffffffffffffffff9384811161021e5782611463918701611217565b9360808601518181116101f1578361147c918801611217565b9560a08101519182116101f157019082601f830112156104da57508f958f93958f978f97968f978a908f978f9790818d6114b8935191016111e0565b50949b91939490611309565b89513d6000823e3d90fd5b50505050505050505050600090565b90913d8082843e6114ef8184611144565b82019085838303126104da57825167ffffffffffffffff938482116101f1570182601f8201121561021e578051938411611571578360051b9189519461153789850187611144565b855287808601938301019384116104da575086809101915b838310611561575050505090386112b4565b825181529181019187910161154f565b634e487b7160e01b825260418b528582fd5b86513d6000823e3d90fd5b505050505050600090565b91508282813d83116115c9575b6115b08183611144565b810103126104da57506115c38591611166565b3861127f565b503d6115a6565b84513d6000823e3d90fd5b60035460408051632fea7b8160e01b81526001600160a01b039384166004808301919091529392602491602091829082908590829089165afa9081156115d0579085916000916118d3575b501691821561158e5783516380e9e9e160e01b81526008878201819052936000828481845afa91821561158357600092611840575b50875491979187169160005b89518110156114cf57858160051b8b01015188519063c9100bcb60e01b8252838201526000818781875afa9081156114c45787878b87878f968e9660009889808093819561177f575b508a0361176b576001809b0361176b5716948d8603611758576116fb92916113549151998a988997889763604b4d3760e11b895288015286015260806044860152608485019061117a565b03915afa9081156113d157600091611722575b5061138d575061171d9061119f565b611667565b8881813d8311611751575b6117378183611144565b8101031261021e57519081151582036104da57503861170e565b503d61172d565b5050505050505050505061171d9061119f565b505050505050505050505061171d9061119f565b9b5099505050505050505050503d8082843e61179b8184611144565b82019160c08184031261021e5780519189820151926117bb8d8401611166565b9460608401519267ffffffffffffffff9384811161021e57826117df918701611217565b9360808601518181116101f157836117f8918801611217565b9560a08101519182116101f157019082601f830112156104da57508f958f93958f978f97968f978a908f978f9790818d611834935191016111e0565b50949b919394906116b0565b90913d8082843e6118518184611144565b82019085838303126104da57825167ffffffffffffffff938482116101f1570182601f8201121561021e578051938411611571578360051b9189519461189989850187611144565b855287808601938301019384116104da575086809101915b8383106118c35750505050903861165b565b82518152918101918791016118b1565b91508282813d8311611903575b6118ea8183611144565b810103126104da57506118fd8591611166565b38611626565b503d6118e0565b60015460405163181be00d60e01b81526004808201526020918290829060249082906001600160a01b03165afa9081156119f3576000916119c6575b50600181146119a15760021461197e576c3234b21d30b93134ba393ab69d60991b6040519161197483611128565b600d835282015290565b673234b21d393bb09d60c11b6040519161199783611128565b6008835282015290565b50683234b21d3832b0b89d60b91b604051916119bc83611128565b6009835282015290565b908282813d83116119ec575b6119dc8183611144565b810103126104da57505138611946565b503d6119d2565b6040513d6000823e3d90fd5b908151811015611a10570160200190565b634e487b7160e01b600052603260045260246000fd5b604051906001600160601b03199060601b16602082015260148152611a4a81611128565b60405190611a5782611128565b601082526f181899199a1a9b1b9c1cb0b131b232b360811b602083015280519060019082821b6002938082048514901517156111ae578301938484116111ae57611ab9611aa3866111c4565b95611ab16040519788611144565b8087526111c4565b6020860190601f1901368237855115611a1057603090538451831015611a10578290607860218701536000915b611af3575b505050505090565b8251821015611b94576001600160f81b03199182611b1e611b1483876119ff565b5160fc1c846119ff565b51169281861b938285048814831517156111ae57848801908189116111ae57611b4b9060001a918a6119ff565b53611b66600f611b5b84886119ff565b5160f81c16846119ff565b51169060039384018094116111ae578593611b88611b8e9360001a918a6119ff565b5361119f565b91611ae6565b611aeb56fea26469706673582212206e9bd71943c3d1a2c9675ddac5f8480556746d4438c994a5a872f587a4322d0c64736f6c63430008110033",
  "linkReferences": {},
  "deployedLinkReferences": {},
  "immutableReferences": {},
  "inputSourceName": "project/contracts/src/nft/ArbRwaNft.sol",
  "devdoc": {
    "kind": "dev",
    "methods": {
      "owner()": {
        "details": "Returns the address of the current owner."
      },
      "renounceOwnership()": {
        "details": "Leaves the contract without owner. It will not be possible to call `onlyOwner` functions. Can only be called by the current owner. NOTE: Renouncing ownership will leave the contract without an owner, thereby disabling any functionality that is only available to the owner."
      },
      "transferOwnership(address)": {
        "details": "Transfers ownership of the contract to a new account (`newOwner`). Can only be called by the current owner."
      }
    },
    "title": "ArbRwaNft — RWA NFT registry (machine issuers, regulators, contract NFT routing)",
    "version": 1
  },
  "evm": {
    "gasEstimates": {
      "creation": {
        "codeDepositCost": "1423800",
        "executionCost": "infinite",
        "totalCost": "infinite"
      },
      "external": {
        "addContractNft()": "infinite",
        "addMachineIssuer(address)": "infinite",
        "addMachineRegulator(address)": "infinite",
        "claimIssuer()": "2286",
        "contractNftFactory()": "2606",
        "deployContractNft()": "infinite",
        "feeToken()": "2452",
        "findContractNft(uint256)": "2604",
        "getMachineIssuers()": "infinite",
        "getMachineNftByIssuer(address)": "2503",
        "getMachineRegulators()": "infinite",
        "identityFactory()": "2782",
        "infoDesk()": "2694",
        "isContractNft(address)": "2575",
        "isMachineNft(address)": "2663",
        "isRwaNft(address)": "4977",
        "machineNftFactory()": "2738",
        "owner()": "2584",
        "registerContractId(uint256,address)": "26781",
        "removeMachineIssuer(address)": "32626",
        "removeMachineRegulator(address)": "30458",
        "renounceOwnership()": "28251",
        "setMachineNftBlockState(address,bool)": "infinite",
        "transferOwnership(address)": "28689"
      },
      "internal": {
        "_addressToString(address)": "infinite",
        "_didPrefix()": "infinite",
        "_hasValidClaimTopic(address,uint256)": "infinite"
      }
    }
  },
  "storageLayout": {
    "storage": [
      {
        "astId": 476,
        "contract": "project/contracts/src/nft/ArbRwaNft.sol:ArbRwaNft",
        "label": "_owner",
        "offset": 0,
        "slot": "0",
        "type": "t_address"
      },
      {
        "astId": 4400,
        "contract": "project/contracts/src/nft/ArbRwaNft.sol:ArbRwaNft",
        "label": "infoDesk",
        "offset": 0,
        "slot": "1",
        "type": "t_address"
      },
      {
        "astId": 4402,
        "contract": "project/contracts/src/nft/ArbRwaNft.sol:ArbRwaNft",
        "label": "feeToken",
        "offset": 0,
        "slot": "2",
        "type": "t_address"
      },
      {
        "astId": 4404,
        "contract": "project/contracts/src/nft/ArbRwaNft.sol:ArbRwaNft",
        "label": "identityFactory",
        "offset": 0,
        "slot": "3",
        "type": "t_address"
      },
      {
        "astId": 4406,
        "contract": "project/contracts/src/nft/ArbRwaNft.sol:ArbRwaNft",
        "label": "claimIssuer",
        "offset": 0,
        "slot": "4",
        "type": "t_address"
      },
      {
        "astId": 4408,
        "contract": "project/contracts/src/nft/ArbRwaNft.sol:ArbRwaNft",
        "label": "machineNftFactory",
        "offset": 0,
        "slot": "5",
        "type": "t_address"
      },
      {
        "astId": 4410,
        "contract": "project/contracts/src/nft/ArbRwaNft.sol:ArbRwaNft",
        "label": "contractNftFactory",
        "offset": 0,
        "slot": "6",
        "type": "t_address"
      },
      {
        "astId": 4413,
        "contract": "project/contracts/src/nft/ArbRwaNft.sol:ArbRwaNft",
        "label": "_machineIssuers",
        "offset": 0,
        "slot": "7",
        "type": "t_array(t_address)dyn_storage"
      },
      {
        "astId": 4416,
        "contract": "project/contracts/src/nft/ArbRwaNft.sol:ArbRwaNft",
        "label": "_machineRegulators",
        "offset": 0,
        "slot": "8",
        "type": "t_array(t_address)dyn_storage"
      },
      {
        "astId": 4420,
        "contract": "project/contracts/src/nft/ArbRwaNft.sol:ArbRwaNft",
        "label": "_isIssuer",
        "offset": 0,
        "slot": "9",
        "type": "t_mapping(t_address,t_bool)"
      },
      {
        "astId": 4424,
        "contract": "project/contracts/src/nft/ArbRwaNft.sol:ArbRwaNft",
        "label": "_isRegulator",
        "offset": 0,
        "slot": "10",
        "type": "t_mapping(t_address,t_bool)"
      },
      {
        "astId": 4428,
        "contract": "project/contracts/src/nft/ArbRwaNft.sol:ArbRwaNft",
        "label": "_issuerToMachineNft",
        "offset": 0,
        "slot": "11",
        "type": "t_mapping(t_address,t_address)"
      },
      {
        "astId": 4432,
        "contract": "project/contracts/src/nft/ArbRwaNft.sol:ArbRwaNft",
        "label": "_isContractNft",
        "offset": 0,
        "slot": "12",
        "type": "t_mapping(t_address,t_bool)"
      },
      {
        "astId": 4436,
        "contract": "project/contracts/src/nft/ArbRwaNft.sol:ArbRwaNft",
        "label": "_isMachineNftAddr",
        "offset": 0,
        "slot": "13",
        "type": "t_mapping(t_address,t_bool)"
      },
      {
        "astId": 4441,
        "contract": "project/contracts/src/nft/ArbRwaNft.sol:ArbRwaNft",
        "label": "findContractNft",
        "offset": 0,
        "slot": "14",
        "type": "t_mapping(t_uint256,t_address)"
      },
      {
        "astId": 4445,
        "contract": "project/contracts/src/nft/ArbRwaNft.sol:ArbRwaNft",
        "label": "_blocked",
        "offset": 0,
        "slot": "15",
        "type": "t_mapping(t_address,t_bool)"
      }
    ],
    "types": {
      "t_address": {
        "encoding": "inplace",
        "label": "address",
        "numberOfBytes": "20"
      },
      "t_array(t_address)dyn_storage": {
        "base": "t_address",
        "encoding": "dynamic_array",
        "label": "address[]",
        "numberOfBytes": "32"
      },
      "t_bool": {
        "encoding": "inplace",
        "label": "bool",
        "numberOfBytes": "1"
      },
      "t_mapping(t_address,t_address)": {
        "encoding": "mapping",
        "key": "t_address",
        "label": "mapping(address => address)",
        "numberOfBytes": "32",
        "value": "t_address"
      },
      "t_mapping(t_address,t_bool)": {
        "encoding": "mapping",
        "key": "t_address",
        "label": "mapping(address => bool)",
        "numberOfBytes": "32",
        "value": "t_bool"
      },
      "t_mapping(t_uint256,t_address)": {
        "encoding": "mapping",
        "key": "t_uint256",
        "label": "mapping(uint256 => address)",
        "numberOfBytes": "32",
        "value": "t_address"
      },
      "t_uint256": {
        "encoding": "inplace",
        "label": "uint256",
        "numberOfBytes": "32"
      }
    }
  },
  "userdoc": {
    "kind": "user",
    "methods": {},
    "version": 1
  },
  "argsData": "0x000000000000000000000000d41587f9d5df02662afa4ac60626154985e9149a000000000000000000000000cae0bb0e82bbcbed3eb3089df64cc4071b53524f000000000000000000000000086caad51b5d709ef94f03815abcd5c554ad6a60000000000000000000000000e90b0ccc2382e0eeec391bc9169b1c17329e3c32000000000000000000000000d95642ca55d0f021277a15b55225693241a983720000000000000000000000007cfa136d26ae91a663d1d655d3e373d6a049198c000000000000000000000000a9b994d395b99e24b67f3edf5a1ffc18edea0ea3",
  "transaction": {
    "nonce": "0xb7",
    "hash": "0xc485b91b06b7ee77c1859eaffdc503f9e3876377dcda53ec7fb971964bdef9ea",
    "origin": "0xd41587f9d5df02662afa4ac60626154985e9149a"
  }
}