{
  "address": "0x7cfa136d26ae91a663d1d655d3e373d6a049198c",
  "abi": [
    {
      "inputs": [
        {
          "internalType": "string",
          "name": "issuerDid",
          "type": "string"
        },
        {
          "internalType": "string",
          "name": "regulatorDid",
          "type": "string"
        },
        {
          "internalType": "address",
          "name": "issuerWallet",
          "type": "address"
        },
        {
          "internalType": "address",
          "name": "infoDesk",
          "type": "address"
        },
        {
          "internalType": "address",
          "name": "feeToken",
          "type": "address"
        }
      ],
      "name": "deployMachineNft",
      "outputs": [
        {
          "internalType": "address",
          "name": "",
          "type": "address"
        }
      ],
      "stateMutability": "nonpayable",
      "type": "function"
    }
  ],
  "contractName": "MachineNftFactory",
  "sourceName": "contracts/src/nft/MachineNftFactory.sol",
  "bytecode": "0x6080806040523461001657612637908161001c8239f35b600080fdfe6080604052600436101561001257600080fd5b6000803560e01c6371393ed41461002857600080fd5b346101445760a03660031901126101445767ffffffffffffffff6004358181116101405761005a903690600401610147565b60243582811161013c57610072903690600401610147565b6001600160a01b039260443584811692919083900361013857606435858116809103610134576084359286841680940361013057604051956123fc8088019485118886101761011c5787969594926100de608095936100ec936102068b3960a0865260a08601906101c5565b9084820360208601526101c5565b94604083015260608201520152039083f0908115610111576020925060405191168152f35b6040513d84823e3d90fd5b634e487b7160e01b8a52604160045260248afd5b8780fd5b8680fd5b8580fd5b8380fd5b8280fd5b80fd5b81601f820112156101aa5780359067ffffffffffffffff928383116101af5760405193601f8401601f19908116603f01168501908111858210176101af57604052828452602083830101116101aa57816000926020809301838601378301015290565b600080fd5b634e487b7160e01b600052604160045260246000fd5b919082519283825260005b8481106101f1575050826000602080949584010152601f8019910116010190565b6020818301810151848301820152016101d056fe60a0604052346200067d57620023fc803803806200001d81620006b8565b92833981019060a0818303126200067d5780516001600160401b03908181116200067d57836200004f918401620006de565b9260209081840151908382116200067d576200006d918501620006de565b916200007c6040850162000750565b92620000996080620000916060880162000750565b960162000750565b95620000a462000682565b91600b83526a135858da1a5b994813919560aa1b85840152620000c662000682565b6004808252631353919560e21b8783015284519386851162000668576000928354956001978888811c981680156200065d575b8b891014620005655781908b601f998a811162000607575b50508b90898311600114620005a257879262000596575b5050600019600383901b1c191690881b1784555b805190888211620005835787548881811c9116801562000578575b8b821014620005655790818884931162000512575b508a90888311600114620004ad578692620004a1575b5050600019600383901b1c191690871b1786555b8051908782116200048e576006548781811c9116801562000483575b8a82101462000470579081878493116200041c575b508990878311600114620003b6578592620003aa575b5050600019600383901b1c191690861b176006555b82519586116200039757600754908582811c921680156200038c575b8883101462000379575083811162000330575b5085928511600114620002c7579394508492919083620002bb575b50501b916000199060031b1c1916176007555b60805260088054610100600160a81b03191691811b610100600160a81b0316919091179055600980546001600160a01b0319166001600160a01b0392909216919091179055604051611c9690816200076682396080518181816102cf01528181610cc60152610ff60152f35b0151925038806200023c565b6007815285812093958591601f198316915b88838310620003155750505010620002fb575b505050811b016007556200024f565b015160001960f88460031b161c19169055388080620002ec565b858701518855909601959485019487935090810190620002d9565b600782528682208480880160051c8201928989106200036f575b0160051c019085905b8281106200036357505062000221565b83815501859062000353565b925081926200034a565b634e487b7160e01b835260229052602482fd5b91607f16916200020e565b634e487b7160e01b825260419052602490fd5b015190503880620001dd565b600686528a86208994509190601f198416875b8d828210620004055750508411620003eb575b505050811b01600655620001f2565b015160001960f88460031b161c19169055388080620003dc565b8385015186558c97909501949384019301620003c9565b909150600685528985208780850160051c8201928c861062000466575b918a91869594930160051c01915b82811062000457575050620001c7565b8781558594508a910162000447565b9250819262000439565b634e487b7160e01b855260228452602485fd5b90607f1690620001b2565b634e487b7160e01b845260418352602484fd5b01519050388062000182565b8987528b87208a94509190601f198416888e5b828210620004fa5750508411620004e0575b505050811b01865562000196565b015160001960f88460031b161c19169055388080620004d2565b8385015186558d979095019493840193018e620004c0565b9091508886528a86208880850160051c8201928d86106200055b575b918b91869594930160051c01915b8281106200054c5750506200016c565b8881558594508b91016200053c565b925081926200052e565b634e487b7160e01b865260228552602486fd5b90607f169062000157565b634e487b7160e01b855260418452602485fd5b01519050388062000128565b8780528c88208b94509190601f198416898f5b828210620005ef5750508411620005d5575b505050811b0184556200013c565b015160001960f88460031b161c19169055388080620005c7565b8385015186558e979095019493840193018f620005b5565b90919250878052898289209181860160051c830193861062000653575b918c91869594930160051c01915b8281106200064457508d915062000111565b8981558594508c910162000632565b9250819262000624565b97607f1697620000f9565b604182634e487b7160e01b6000525260246000fd5b600080fd5b60408051919082016001600160401b03811183821017620006a257604052565b634e487b7160e01b600052604160045260246000fd5b6040519190601f01601f191682016001600160401b03811183821017620006a257604052565b919080601f840112156200067d5782516001600160401b038111620006a25760209062000714601f8201601f19168301620006b8565b928184528282870101116200067d5760005b8181106200073c57508260009394955001015290565b858101830151848201840152820162000726565b51906001600160a01b03821682036200067d5756fe608060408181526004918236101561001657600080fd5b600092833560e01c91826301ffc9a7146113155750816306fdde031461126d578163081812fc1461124d578163095ea7b3146110df5781631d143848146110355781632267eec914610fd257816323b872dd14610fad5781633a63c29414610f7957816342842e0e14610f1d5781636352211e14610eec578163647846a514610ec357816370a0823114610e2d57816375acb2a014610cf55781638d5c707d14610cb157816395d89b4114610c09578163a22cb46514610b39578163a8dd05a114610937578163b88d4fde146108c3578163c06b656814610898578163c87b56dd1461082d578163d75f0da714610809578163dcd9c7cd1461026557508063dd8fee141461017d5763e985e9c51461012d57600080fd5b3461017957806003193601126101795760ff8160209361014b6113c0565b6101536113db565b6001600160a01b0391821683526005875283832091168252855220549151911615158152f35b5080fd5b50346101795781600319360112610179578051908260075461019e816113f1565b8085529160019180831690811561023d57506001146101e0575b5050506101ca826101dc94038361145d565b51918291602083526020830190611380565b0390f35b9450600785527fa66cc928b5edb82af9bd49922954155ab7b0942694bea4ce44661d9a8736c6885b828610610225575050506101ca8260206101dc95820101946101b8565b80546020878701810191909152909501948101610208565b6101dc9750869350602092506101ca94915060ff191682840152151560051b820101946101b8565b90508260803660031901126108065761027c6113c0565b6001600160a01b0393909260443585811692908390036108025767ffffffffffffffff916064358381116107fe576102b790369083016114d0565b92600854936102c960ff861615611a2c565b6102f6897f0000000000000000000000000000000000000000000000000000000000000000163314611a62565b8888169485156107ce576000878152600260205260409020546001600160a01b031661079c576103318251801515908161078f575b50611a9b565b60249961033e8b35611bde565b509182610567575b505050858752602098600a8a5284882093825193841161055657505061036c83546113f1565b601f8111610513575b508890601f83116001146104a657928261046b93899a93610470968a9b9261049b575b50508160011b916000199060031b1c19161790555b858451916103ba8361142b565b8983526000828152600260205260409020546103e2906001600160a01b031615155b15611af9565b6103f160ff6008541615611a2c565b600082815260026020526040902054610414906001600160a01b031615156103dc565b868a5260038b52858a2080546001019055818a5260028b52858a2080546001600160a01b0319168817905581878b7fddf252ad1be2c89b69c2b068fc378daa952ba7f163c4a11628f55a4df523b3ef8180a46118bd565b61167c565b51937f3290dbfa2652e065ae97c8f11a50298d82a9406193389c5a05f0c3462f55cb41339180a48152f35b015190508c80610398565b8388528988209190601f198416895b8c8282106104fd5750509388999a9361047096936001938361046b98106104e4575b505050811b0190556103ad565b015160001960f88460031b161c191690558c80806104d7565b60018596829396860151815501950193016104b5565b838852898820601f840160051c8101918b851061054c575b601f0160051c01905b8181106105415750610375565b888155600101610534565b909150819061052b565b634e487b7160e01b89526041905287fd5b819060081c169086519283928d636c3aa54d60e01b9081865260018a870152602096879181855afa948515610785578f9392918e9088928298610766575b50868816156106fd575b505050508260095416928951948b878701946323b872dd60e01b865287015216604485015260648401526064835260a0830192808410878511176106eb5760e08101848110888211176106d95789528484527f5361666545524332303a206c6f772d6c6576656c2063616c6c206661696c656460c0820152516106449392918c91829182855af161063e61188d565b91611b45565b80518281159182156106b5575b5050905015610661578080610346565b83602a8b60849388519362461bcd60e51b85528401528201527f5361666545524332303a204552433230206f7065726174696f6e20646964206e6044820152691bdd081cdd58d8d9595960b21b6064820152fd5b83809293500103126106d55781015180151581036106d55780828d610651565b8880fd5b634e487b7160e01b8d52604189528e8dfd5b634e487b7160e01b8c52604188528d8cfd5b909294919396508b51948593849283528c8301525afa90811561075c57908d918c9161072f575b50928e858d826105af565b61074f9150853d8711610755575b610747818361145d565b810190611ada565b8e610724565b503d61073d565b88513d8d823e3d90fd5b61077e919850833d851161075557610747818361145d565b96386105a5565b8a513d8f823e3d90fd5b610500915011158c61032b565b845162461bcd60e51b8152602081860152600c60248201526b546f6b656e2065786973747360a01b6044820152606490fd5b845162461bcd60e51b8152602081860152600a6024820152692d32b9379037bbb732b960b11b6044820152606490fd5b8580fd5b8380fd5b80fd5b50503461017957816003193601126101795760209060ff6008541690519015158152f35b8383346101795760203660031901126101795761086b6108666101dc9435600052600260205260018060a01b0360406000205416151590565b611517565b8181516108778161142b565b528051916108848361142b565b825251918291602083526020830190611380565b50503461017957816003193601126101795760088054915191901c6001600160a01b03168152602090f35b839034610179576080366003190112610179576108de6113c0565b906108e76113db565b916044356064359367ffffffffffffffff85116107fe5761091161046b94610934963691016114d0565b9261092461091f84336116a0565b6115c7565b61092f838383611768565b6119b1565b80f35b839150346101795782600319360112610179576109526113c0565b9067ffffffffffffffff602435818111610b355761097390369084016114d0565b9461098360ff6008541615611a2c565b6001600160a01b039384169361099885611563565b33911603610b07576109b486518015159081610afa5750611a9b565b838552602090600a82528520928651928311610ae757506109d583546113f1565b601f8111610aa4575b5080601f8311600114610a3f575084958293949592610a34575b50508160011b916000199060031b1c19161790555b7ff8e1a15aba9398e019f0b49df1a4fde98ee17ae345cb5f6b5e2c27f5033e8ce78280a280f35b0151905085806109f8565b90601f198316968487528287209287905b898210610a8c5750508360019596979810610a73575b505050811b019055610a0d565b015160001960f88460031b161c19169055858080610a66565b80600185968294968601518155019501930190610a50565b838652818620601f840160051c810191838510610add575b601f0160051c01905b818110610ad257506109de565b868155600101610ac5565b9091508190610abc565b634e487b7160e01b865260419052602485fd5b610500915011158861032b565b5162461bcd60e51b815260208184015260096024820152682737ba1037bbb732b960b91b6044820152606490fd5b8480fd5b91905034610c055780600319360112610c0557610b546113c0565b9060243591821515809303610b35576001600160a01b031692338414610bc35750338452600560205280842083855260205280842060ff1981541660ff8416179055519081527f17307eab39ab6107e8899845ad3d59bd9653f200f220920489ca2b5937696c3160203392a380f35b6020606492519162461bcd60e51b8352820152601960248201527f4552433732313a20617070726f766520746f2063616c6c6572000000000000006044820152fd5b8280fd5b505034610179578160031936011261017957805190826001805491610c2d836113f1565b8086529282811690811561023d5750600114610c55575050506101ca826101dc94038361145d565b94508085527fb10e2d527612073b26eecdfd717e6a320cf44b4afac2b0732d9fcbe2b7fa0cf65b828610610c99575050506101ca8260206101dc95820101946101b8565b80546020878701810191909152909501948101610c7c565b505034610179578160031936011261017957517f00000000000000000000000000000000000000000000000000000000000000006001600160a01b03168152602090f35b91905034610c055760209182600319360112610802576001600160a01b03610d1b6113c0565b166000818152600260205260409020549091906001600160a01b031615610dff57508352600a8252808320815193849181815490610d58826113f1565b92838652600192888482169182600014610dd5575050600114610d97575b85886101dc89610d88848a038561145d565b51928284938452830190611380565b87945081939291528383205b828410610dbd5750505082010181610d886101dc38610d76565b8054848a018601528895508794909301928101610da3565b60ff19168882015294151560051b87019094019450859350610d8892506101dc9150389050610d76565b825162461bcd60e51b815290810184905260086024820152672737903a37b5b2b760c11b6044820152606490fd5b83915034610179576020366003190112610179576001600160a01b03610e516113c0565b16908115610e6e5760208480858581526003845220549051908152f35b608490602085519162461bcd60e51b8352820152602960248201527f4552433732313a2061646472657373207a65726f206973206e6f7420612076616044820152683634b21037bbb732b960b91b6064820152fd5b50503461017957816003193601126101795760095490516001600160a01b039091168152602090f35b8284346108065760203660031901126108065750610f0c60209235611563565b90516001600160a01b039091168152f35b83833461017957610f2d3661147f565b91835193602085019085821067ffffffffffffffff831117610f66579161093495939161046b95935286845261092461091f84336116a0565b634e487b7160e01b875260418852602487fd5b905082346108065760203660031901126108065750610f989035611bde565b82519182526001600160a01b03166020820152f35b833461080657610934610fbf3661147f565b91610fcd61091f84336116a0565b611768565b839034610179576020366003190112610179573580151580910361017957611024337f00000000000000000000000000000000000000000000000000000000000000006001600160a01b031614611a62565b60ff80196008541691161760085580f35b50503461017957816003193601126101795780519082600654611057816113f1565b8085529160019180831690811561023d5750600114611082575050506101ca826101dc94038361145d565b9450600685527ff652222313e28459528d920b65115c16c04f3efc82aaedc97be59f3f377c0d3f5b8286106110c7575050506101ca8260206101dc95820101946101b8565b805460208787018101919091529095019481016110aa565b905034610c055781600319360112610c05576110f96113c0565b6024359290916001600160a01b039190828061111487611563565b16941693808514611200578033149081156111e1575b501561117957848652602052842080546001600160a01b0319168317905561115183611563565b167f8c5be1e5ebec7d5bd14f71427d1e84f3dd0314c0f7b2291e5b200ac8c7c3b9258480a480f35b6020608492519162461bcd60e51b8352820152603d60248201527f4552433732313a20617070726f76652063616c6c6572206973206e6f7420746f60448201527f6b656e206f776e6572206f7220617070726f76656420666f7220616c6c0000006064820152fd5b90508652600560205281862033875260205260ff82872054163861112a565b506020608492519162461bcd60e51b8352820152602160248201527f4552433732313a20617070726f76616c20746f2063757272656e74206f776e656044820152603960f91b6064820152fd5b8284346108065760203660031901126108065750610f0c60209235611589565b50503461017957816003193601126101795780519082805461128e816113f1565b8085529160019180831690811561023d57506001146112b9575050506101ca826101dc94038361145d565b80809650527f290decd9548b62a8d60345a988386fc84ba6bc95484008f6362f93160ef3e5635b8286106112fd575050506101ca8260206101dc95820101946101b8565b805460208787018101919091529095019481016112e0565b849134610c05576020366003190112610c05573563ffffffff60e01b8116809103610c0557602092506380ac58cd60e01b811490811561136f575b811561135e575b5015158152f35b6301ffc9a760e01b14905083611357565b635b5e139f60e01b81149150611350565b919082519283825260005b8481106113ac575050826000602080949584010152601f8019910116010190565b60208183018101518483018201520161138b565b600435906001600160a01b03821682036113d657565b600080fd5b602435906001600160a01b03821682036113d657565b90600182811c92168015611421575b602083101461140b57565b634e487b7160e01b600052602260045260246000fd5b91607f1691611400565b6020810190811067ffffffffffffffff82111761144757604052565b634e487b7160e01b600052604160045260246000fd5b90601f8019910116810190811067ffffffffffffffff82111761144757604052565b60609060031901126113d6576001600160a01b039060043582811681036113d6579160243590811681036113d6579060443590565b67ffffffffffffffff811161144757601f01601f191660200190565b81601f820112156113d6578035906114e7826114b4565b926114f5604051948561145d565b828452602083830101116113d657816000926020809301838601378301015290565b1561151e57565b60405162461bcd60e51b815260206004820152601860248201527f4552433732313a20696e76616c696420746f6b656e20494400000000000000006044820152606490fd5b6000908152600260205260409020546001600160a01b0316611586811515611517565b90565b6000818152600260205260409020546115ac906001600160a01b03161515611517565b6000908152600460205260409020546001600160a01b031690565b156115ce57565b60405162461bcd60e51b815260206004820152602d60248201527f4552433732313a2063616c6c6572206973206e6f7420746f6b656e206f776e6560448201526c1c881bdc88185c1c1c9bdd9959609a1b6064820152608490fd5b60809060208152603260208201527f4552433732313a207472616e7366657220746f206e6f6e20455243373231526560408201527131b2b4bb32b91034b6b83632b6b2b73a32b960711b60608201520190565b1561168357565b60405162461bcd60e51b81528061169c60048201611629565b0390fd5b906001600160a01b0380806116b484611563565b169316918383149384156116e7575b5083156116d1575b50505090565b6116dd91929350611589565b16143880806116cb565b909350600052600560205260406000208260005260205260ff6040600020541692386116c3565b1561171557565b60405162461bcd60e51b815260206004820152602560248201527f4552433732313a207472616e736665722066726f6d20696e636f72726563742060448201526437bbb732b960d91b6064820152608490fd5b906117909161177684611563565b6001600160a01b039391841692849290918316841461170e565b1691821561183c57816117bc916117ac60ff6008541615611a2c565b6117b586611563565b161461170e565b7fddf252ad1be2c89b69c2b068fc378daa952ba7f163c4a11628f55a4df523b3ef60008481526004602052604081206bffffffffffffffffffffffff60a01b9081815416905583825260036020526040822060001981540190558482526040822060018154019055858252600260205284604083209182541617905580a4565b60405162461bcd60e51b8152602060048201526024808201527f4552433732313a207472616e7366657220746f20746865207a65726f206164646044820152637265737360e01b6064820152608490fd5b3d156118b8573d9061189e826114b4565b916118ac604051938461145d565b82523d6000602084013e565b606090565b9091600091803b156119a8576119086020918493604051948580948193630a85bd0160e11b9a8b84523360048501528460248501526044840152608060648401526084830190611380565b03926001600160a01b03165af190829082611960575b50506119525761192c61188d565b8051908161194d5760405162461bcd60e51b81528061169c60048201611629565b602001fd5b6001600160e01b0319161490565b909192506020813d82116119a0575b8161197c6020938361145d565b810103126101795751906001600160e01b031982168203610806575090388061191e565b3d915061196f565b50505050600190565b91926000929190813b15611a2257602091611a079185604051958680958194630a85bd0160e11b9b8c845233600485015260018060a01b0380951660248501526044840152608060648401526084830190611380565b0393165af1908290826119605750506119525761192c61188d565b5050505050600190565b15611a3357565b60405162461bcd60e51b8152602060048201526007602482015266109b1bd8dad95960ca1b6044820152606490fd5b15611a6957565b60405162461bcd60e51b815260206004820152600a6024820152692737ba1034b9b9bab2b960b11b6044820152606490fd5b15611aa257565b60405162461bcd60e51b815260206004820152601060248201526f496e76616c6964204449442073697a6560801b6044820152606490fd5b908160209103126113d657516001600160a01b03811681036113d65790565b15611b0057565b60405162461bcd60e51b815260206004820152601c60248201527f4552433732313a20746f6b656e20616c7265616479206d696e746564000000006044820152606490fd5b91929015611ba75750815115611b59575090565b3b15611b625790565b60405162461bcd60e51b815260206004820152601d60248201527f416464726573733a2063616c6c20746f206e6f6e2d636f6e74726163740000006044820152606490fd5b825190915015611bba5750805190602001fd5b60405162461bcd60e51b81526020600482015290819061169c906024830190611380565b600880546040516349f08b5f60e01b8152600481019390935260209183916024918391901c6001600160a01b03165afa908115611c5457600091611c23575b50903090565b906020823d8211611c4c575b81611c3c6020938361145d565b8101031261080657505138611c1d565b3d9150611c2f565b6040513d6000823e3d90fdfea264697066735822122079fa60a936725aa45f05d6394bb1ad459d48916f304a53564be88d450d9a74fa64736f6c63430008110033a26469706673582212203f4ad5d82a9360231ba5ee1ff7ba972afe223ee252102b1edca6b668abd5d36764736f6c63430008110033",
  "linkReferences": {},
  "deployedLinkReferences": {},
  "immutableReferences": {},
  "inputSourceName": "project/contracts/src/nft/MachineNftFactory.sol",
  "devdoc": {
    "details": "Standalone factory so ArbRwaNft stays under the EIP-170 24KB limit on L2.",
    "kind": "dev",
    "methods": {},
    "version": 1
  },
  "evm": {
    "gasEstimates": {
      "creation": {
        "codeDepositCost": "1956600",
        "executionCost": "2080",
        "totalCost": "1958680"
      },
      "external": {
        "deployMachineNft(string,string,address,address,address)": "infinite"
      }
    }
  },
  "storageLayout": {
    "storage": [],
    "types": null
  },
  "userdoc": {
    "kind": "user",
    "methods": {},
    "version": 1
  },
  "argsData": "0x",
  "transaction": {
    "hash": "0x198bcd9dfce5762a95c20c2a6436141bc8d95cd2f10929ae4eb9ee2fd758cbbe",
    "nonce": "0x38",
    "origin": "0xd41587f9d5df02662afa4ac60626154985e9149a"
  }
}